S01D0000787A686F753031365F46696E616C50726F6A6563742E7372656312
S113000045C0000060C000005EC000005CC000008D
S11300105AC0000058C0000056C0000054C0000080
S113002052C0000050C000004EC000004CC0000090
S11300304AC00000B4C1000046C0000044C0000033
S113004042C0000040C000003EC000003CC00000B0
S11300503AC0000038C0000036C0000034C00000C0
S113006032C0000030C000002EC000002CC00000D0
S11300702AC0000028C0000026C0000024C00000E0
S113008022C0000020C000001EC0000011241FBEBA
S1130090CFEFD0E4DEBFCDBF11E0A0E0B1E0ECEBE8
S11300A0FFE000E00BBF02C007900D92A633B1073A
S11300B0D9F721E0A6E3B1E001C01D92A936B20749
S11300C0E1F795D479C79CCFCF93DF93CDB7DEB753
S11300D081E018D0DF91CF910895CF93DF93CDB70E
S11300E0DEB784E690E0A6D088E30CD086E00AD0A0
S11300F08FE008D081E006D08AE090E09BD0DF91C9
S1130100CF910895CF93DF931F92CDB7DEB7898344
S11301108BE290E02BE230E0F90120812F7BFC019F
S1130120208385E290E02981FC0120838BE290E02A
S11301302BE230E0F90120812068FC0120830000DB
S11301408BE290E02BE230E0F90120812F77FC0173
S1130150208382E090E06ED00F90DF91CF910895DC
S1130160CF93DF931F92CDB7DEB789838BE290E004
S11301702BE230E0F90120812064FC01208385E238
S113018090E02981FC0120838BE290E02BE230E0B7
S1130190F90120812068FC01208300008BE290E0BB
S11301A02BE230E0F90120812F77FC01208381E0EC
S11301B090E040D00F90DF91CF910895CF93DF93DB
S11301C000D000D0CDB7DEB78A837C836B838A816D
S11301D089830FC0898191E0980F998317D08B810F
S11301E09C819C012F5F3F4F3C832B83FC018081CA
S11301F0B7DF8B819C81FC018081882359F70F90A4
S11302000F900F900F90DF91CF910895CF93DF93CC
S11302101F92CDB7DEB789838981813120F489812A
S1130220815870DF03C0898181556CDF0F90DF91A5
S1130230CF910895CF93DF9300D000D000D0CDB7F5
S1130240DEB79E838D831A82198213C01C821B829F
S113025006C000008B819C8101969C838B838B81DB
S11302609C8187309340ACF389819A8101969A836B
S1130270898329813A818D819E812817390734F336
S113028026960FB6F894DEBF0FBECDBFDF91CF9197
S11302900895CF93DF9300D0CDB7DEB789836A8307
S11302A08A81282F30E081E090E002C0880F991FF6
S11302B02A95E2F7982F898189230F900F90DF9177
S11302C0CF910895CF93DF9300D000D0CDB7DEB7A0
S11302D069837A838B839C8389819A81AB81BC8176
S11302E08093040190930501A0930601B093070144
S11302F08091040190910501A0910601B09107013C
S11303008093370190933801A0933901B0933A0157
S11303100F900F900F900F90DF91CF910895CF938E
S1130320DF93CDB7DEB781E890E02BE0FC012083BA
S113033088E890E02DE730E0FC01318320838FE6EC
S113034090E022E0FC01208384E890E0FC0111822B
S113035010828091040190910501A0910601B09151
S113036007018093370190933801A0933901B0932A
S11303703A018FE590E02FE530E0F9012081206813
S1130380FC012083DF91CF910895CF93DF93CDB704
S1130390DEB781E080933601DF91CF9108951F92FB
S11303A00F9200905F000F92112400905B000F9257
S11303B02F933F934F935F936F937F938F939F9369
S11303C0AF93BF93EF93FF93CF93DF93CDB7DEB794
S11303D08091370190913801A0913901B0913A018F
S11303E00197A109B1098093370190933801A09333
S11303F03901B0933A018091370190913801A0916D
S11304003901B0913A01892B8A2B8B2B89F4BDDFFA
S11304108091040190910501A0910601B09107011A
S11304208093370190933801A0933901B0933A0136
S1130430DF91CF91FF91EF91BF91AF919F918F91F8
S11304407F916F915F914F913F912F910F90009207
S11304505B000F9000925F000F901F901895CF9350
S1130460DF93CDB7DEB760970FB6F894DEBF0FBE4B
S1130470CDBF6D837E838F83988729873A874B8787
S11304805C878D819E81AF81B88529853A854B85AE
S11304905C85BC01CD01CAD4DC01CB0189839A837C
S11304A0AB83BC8389819A81AB81BC81892B8A2BE4
S11304B08B2B29F489859A85AB85BC8511C08985E8
S11304C09A85AB85BC858D839E83AF83B8878981EC
S11304D09A81AB81BC8189879A87AB87BC87D1CF4E
S11304E0BC01CD0160960FB6F894DEBF0FBECDBF40
S11304F0DF91CF910895CF93DF93CDB7DEB788E234
S113050090E02FEEFC012083000086E290E0FC01E5
S1130510808160E0BEDE882311F481E3A9C086E215
S113052090E0FC01808161E0B4DE882311F482E371
S11305309FC086E290E0FC01808162E0AADE88230D
S113054011F483E395C086E290E0FC01808163E0CE
S1130550A0DE882311F481E48BC088E290E02FEDC3
S1130560FC012083000086E290E0FC01808160E0D1
S113057090DE882311F484E37BC086E290E0FC01E2
S1130580808161E086DE882311F485E371C086E210
S113059090E0FC01808162E07CDE882311F486E334
S11305A067C086E290E0FC01808163E072DE88230C
S11305B011F482E45DC088E290E02FEBFC0120831B
S11305C0000086E290E0FC01808160E062DE882326
S11305D011F487E34DC086E290E0FC01808161E084
S11305E058DE882311F488E343C086E290E0FC01DE
S11305F0808162E04EDE882311F489E339C086E20B
S113060090E0FC01808163E044DE882311F483E4FC
S11306102FC088E290E02FE7FC012083000086E2EF
S113062090E0FC01808160E034DE882311F48AE2EA
S11306301FC086E290E0FC01808161E02ADE88230D
S113064011F480E315C086E290E0FC01808162E051
S113065020DE882311F483E20BC086E290E0FC01E3
S1130660808163E016DE882311F484E401C080E015
S1130670DF91CF910895CF93DF9300D0CDB7DEB74C
S11306808A838A81898323C08981882F90E0298184
S1130690222F30E021503109285F3E4FF90120819B
S11306A0885F9E4FFC0120838981882F90E02981F7
S11306B0222F30E021503109275E3E4FF90120817D
S11306C0875E9E4FFC0120838981815089838981C3
S11306D08823D1F60F900F90DF91CF910895CF9397
S11306E0DF93CDB7DEB72A970FB6F894DEBF0FBEFF
S11306F0CDBF9A83898389819A81009719F00197E4
S113070049F005C081E090E09A83898304C01A828D
S1130710198201C0000089819A81009709F45AC0A6
S1130720019709F058C080912D01A5DFFCD32091D9
S11307302A01222F30E0B90166D3019721F483E224
S11307408093080110C0EFD320912A01222F30E0BA
S1130750B90159D3019721F48AE28093080103C0B7
S113076080E280930801DFD320912A01222F30E018
S1130770B90149D3019721F483E28093190110C090
S1130780D2D320912A01222F30E0B9013CD3019722
S113079021F48AE28093190103C080E28093190155
S11307A080911801882321F480912901882361F024
S11307B080912D01803140F010921801109229018E
S11307C080E180932D0107C080912D018F5F80937C
S11307D02D0101C0000089819A812A960FB6F894F0
S11307E0DEBF0FBECDBFDF91CF910895CF93DF93CE
S11307F000D0CDB7DEB79A83898389819A81009727
S113080019F0019731F00AC081E090E09A8389835E
S113081008C081E090E09A83898303C01A82198218
S1130820000089819A81009799F0019709F011C01D
S11308304BDC68E071E081E0C1DC69E171E081E1F9
S1130840BDDC80912B01E2DC80912C0189DC01C0AC
S1130850000089819A810F900F90DF91CF910895C4
S1130860CF93DF9300D0CDB7DEB79A83898343DE7D
S113087080933B0189819A818130910589F082308E
S113088091051CF4892B39F024C08230910591F034
S11308900397A9F01EC081E090E09A8389831CC06D
S11308A080913B01882329F082E090E09A83898338
S11308B013C012C083E090E09A8389830DC08091B5
S11308C03B01882329F481E090E09A83898304C062
S11308D003C01A821982000089819A8181309105AE
S11308E021F1823091051CF4892B09F123C0823057
S11308F0910519F00397E9F01DC080912B01803117
S113090039F480913B01833419F480E280932B0104
S113091080912B01803241F480913B01823421F497
S113092080E180932B0106C005C0000003C00000D5
S113093001C0000089819A810F900F90DF91CF91BF
S11309400895CF93DF9300D0CDB7DEB79A83898320
S113095089819A81009719F0019731F00AC081E0EA
S113096090E09A83898308C081E090E09A83898328
S113097003C01A821982000089819A81009719F0B4
S1130980019721F02DC010923C012AC080912B01C7
S1130990803179F480911701803259F080911701E8
S11309A0882339F081E080933C0188E580932C0111
S11309B016C080912B01803279F480912801803215
S11309C059F080912801882339F081E080933C011B
S11309D088E580932C0103C010923C0100C0000004
S11309E089819A810F900F90DF91CF9108950F9391
S11309F01F93CF93DF93CDB7DEB7C454D1090FB69D
S1130A00F894DEBF0FBECDBF84E290E02FEFFC016F
S1130A10208385E290E0FC01108287E290E020EFE1
S1130A20FC01208388E290E02FE0FC0120838AE22D
S1130A3090E02FEFFC0120838BE290E0FC01108218
S1130A4084EF91E0A0E0B0E08B839C83AD83BE8310
S1130A5084EF91E0A0E0B0E08F839887A987BA87FC
S1130A608AE090E0A0E0B0E08B879C87AD87BE87EA
S1130A7084E690E0A0E0B0E08F87988BA98BBA8BD6
S1130A802F81388549855A858B819C81AD81BE81B2
S1130A90BC01CD01E4DCDC01CB018B8B9C8BAD8BE9
S1130AA0BE8B2B853C854D855E858B899C89AD8964
S1130AB0BE89BC01CD01D3DCDC01CB018B8B9C8BCB
S1130AC0AD8BBE8B2F85388949895A898B899C893E
S1130AD0AD89BE89BC01CD01C2DCDC01CB018B8BAD
S1130AE09C8BAD8BBE8B8B899C89AD89BE898F8B8A
S1130AF0988FA98FBA8F8B819C81AD81BE812F89FC
S1130B00388D498D5A8DBC01CD0190D1DA01C901CE
S1130B108B8F9C8FAD8FBE8F8F819885A985BA8569
S1130B202F89388D498D5A8DBC01CD017FD1DA01D1
S1130B30C9018F8F98A3A9A3BAA38B859C85AD8582
S1130B40BE852F89388D498D5A8DBC01CD016ED15A
S1130B50DA01C9018BA39CA3ADA3BEA38F85988999
S1130B60A989BA892F89388D498D5A8DBC01CD0147
S1130B705DD1DA01C9018FA398A7A9A7BAA788E014
S1130B80EEE2F1E0DE019D9601900D928A95E1F787
S1130B9084E090E09CA78BA710923D018B8D9C8DE7
S1130BA0AD8DBE8D80933E0190933F01A093400193
S1130BB0B09341018B8D9C8DAD8DBE8D8093420190
S1130BC090934301A0934401B09345018FE693E0D1
S1130BD09093470180934601109248018F8D98A10C
S1130BE0A9A1BAA18093490190934A01A0934B0112
S1130BF0B0934C018F8D98A1A9A1BAA180934D0106
S1130C0090934E01A0934F01B093500186EF93E06F
S1130C109093520180935101109253018BA19CA196
S1130C20ADA1BEA18093540190935501A0935601A8
S1130C30B09357018BA19CA1ADA1BEA18093580193
S1130C4090935901A0935A01B0935B0180E394E01F
S1130C5090935D0180935C0110925E018FA198A531
S1130C60A9A5BAA580935F0190936001A093610147
S1130C70B09362018FA198A5A9A5BAA58093630139
S1130C8090936401A0936501B093660181EA94E0B6
S1130C9090936801809367018F89988DA98DBA8D8F
S1130CA0BC01CD010FDB3BDB18DA1A8219829BC031
S1130CB089819A81880F991F9E012F5F3F4F820F70
S1130CC0931F8C96FC0180819181FC0125813681E2
S1130CD04781508589819A81880F991FBE016F5F72
S1130CE07F4F860F971F8C96FC0180819181FC01B8
S1130CF081819281A381B481281739074A075B0750
S1130D0009F045C089819A81880F991F9E012F5F40
S1130D103F4F820F931F8C96FC01008111818981C2
S1130D209A81880F991F9E012F5F3F4F820F931F57
S1130D308C96FC0180819181FC0121853285898119
S1130D409A81880F991FAE014F5F5F4F840F951FE3
S1130D508C96FC0180819181FC018081082E000C1D
S1130D60990BF9010995F801808389819A81880F8B
S1130D70991F9E012F5F3F4F820F931F8C96FC019A
S1130D8080819181FC0115821682178210868981E7
S1130D909A81880F991F9E012F5F3F4F820F931FE7
S1130DA08C96FC012081318189819A81880F991F59
S1130DB0AE014F5F5F4F840F951F8C96FC018081BD
S1130DC09181FC0185819681A781B0850196A11D41
S1130DD0B11DF90185839683A783B08789819A81A0
S1130DE001969A83898329813A818BA59CA528172A
S1130DF0390708F45DCF0000809136018823E1F3C0
S1130E001092360152CF97FB072E16F4009406D0A9
S1130E1077FD08D02DD007FC05D03EF49095819540
S1130E209F4F0895709561957F4F0895A1E21A2E02
S1130E30AA1BBB1BFD010DC0AA1FBB1FEE1FFF1F7A
S1130E40A217B307E407F50720F0A21BB30BE40BCA
S1130E50F50B661F771F881F991F1A9469F7609511
S1130E607095809590959B01AC01BD01CF010895CB
S1130E70AA1BBB1B51E107C0AA1FBB1FA617B707BC
S1130E8010F0A61BB70B881F991F5A95A9F78095D8
S1130E909095BC01CD0108958F929F92AF92BF921D
S1130EA0CF92DF92EF92FF92CF93DF93EC016881B0
S1130EB079818A819B81611571058105910521F4F0
S1130EC064E279ED8BE597E02DE133EF41E050E00A
S1130ED038D049015A019B01AC01A7EAB1E44DD0D5
S1130EE06B017C01ACEEB4EFA501940152D0DC019E
S1130EF0CB018C0D9D1DAE1DBF1DB7FF03C0019717
S1130F00A109B04888839983AA83BB839F77DF9123
S1130F10CF91FF90EF90DF90CF90BF90AF909F90D4
S1130F208F900895B9CF80E091E0B6CFA0E0B0E013
S1130F308093000190930101A0930201B0930301F7
S1130F400895052E97FB16F400940FD057FD05D095
S1130F506DDF07FC02D046F408C0509540953095EB
S1130F6021953F4F4F4F5F4F089590958095709511
S1130F7061957F4F8F4F9F4F08950FD0A59F900D80
S1130F80B49F900DA49F800D911D11240895B7FF67
S1130F90F4CFF3DF821B930B0895A29FB001B39F9C
S1130FA0C001A39F700D811D1124911DB29F700D6E
S10F0FB0811D1124911D0895F894FFCFB9
S1130FBC01000000010000002000000000000000FF
S1130FCC00000000000000000020000000000000F1
S1130FDC000000000000000000001410DB013D01C3
S1090FEC480153015E01FF
S9030000FC
