:1000000045C0000060C000005EC000005CC0000091
:100010005AC0000058C0000056C0000054C0000084
:1000200052C0000050C000004EC000004CC0000094
:100030004AC000009BC1000046C0000044C0000050
:1000400042C0000040C000003EC000003CC00000B4
:100050003AC0000038C0000036C0000034C00000C4
:1000600032C0000030C000002EC000002CC00000D4
:100070002AC0000028C0000026C0000024C00000E4
:1000800022C0000020C000001EC0000011241FBEBE
:10009000CFEFD0E4DEBFCDBF11E0A0E0B1E0EAE2F7
:1000A000FBE000E00BBF02C007900D92AA32B1073F
:1000B000D9F721E0AAE2B1E001C01D92A534B20750
:1000C000E1F7CCD230C59CCFCF93DF93CDB7DEB76D
:1000D00081E018D0DF91CF910895CF93DF93CDB712
:1000E000DEB784E690E0A6D088E30CD086E00AD0A4
:1000F0008FE008D081E006D08AE090E09BD0DF91CD
:10010000CF910895CF93DF931F92CDB7DEB7898348
:100110008BE290E02BE230E0F90120812F7BFC01A3
:10012000208385E290E02981FC0120838BE290E02E
:100130002BE230E0F90120812068FC0120830000DF
:100140008BE290E02BE230E0F90120812F77FC0177
:10015000208382E090E06ED00F90DF91CF910895E0
:10016000CF93DF931F92CDB7DEB789838BE290E008
:100170002BE230E0F90120812064FC01208385E23C
:1001800090E02981FC0120838BE290E02BE230E0BB
:10019000F90120812068FC01208300008BE290E0BF
:1001A0002BE230E0F90120812F77FC01208381E0F0
:1001B00090E040D00F90DF91CF910895CF93DF93DF
:1001C00000D000D0CDB7DEB78A837C836B838A8171
:1001D00089830FC0898191E0980F998317D08B8113
:1001E0009C819C012F5F3F4F3C832B83FC018081CE
:1001F000B7DF8B819C81FC018081882359F70F90A8
:100200000F900F900F90DF91CF910895CF93DF93D0
:100210001F92CDB7DEB789838981813120F489812E
:10022000815870DF03C0898181556CDF0F90DF91A9
:10023000CF910895CF93DF9300D000D000D0CDB7F9
:10024000DEB79E838D831A82198213C01C821B82A3
:1002500006C000008B819C8101969C838B838B81DF
:100260009C8187309340ACF389819A8101969A836F
:10027000898329813A818D819E812817390734F33A
:1002800026960FB6F894DEBF0FBECDBFDF91CF919B
:100290000895CF93DF9300D000D0CDB7DEB7698348
:1002A0007A838B839C8389819A81AB81BC81809383
:1002B000040190930501A0930601B093070180917A
:1002C000040190910501A0910601B091070180936E
:1002D0002B0190932C01A0932D01B0932E010F9030
:1002E0000F900F900F90DF91CF910895CF93DF93F0
:1002F000CDB7DEB781E890E02BE0FC01208388E8F1
:1003000090E02DE730E0FC01318320838FE690E020
:1003100022E0FC01208384E890E0FC01118210823D
:100320008091040190910501A0910601B09107010F
:1003300080932B0190932C01A0932D01B0932E015B
:100340008FE590E02FE530E0F90120812068FC0185
:100350002083DF91CF910895CF93DF93CDB7DEB7A0
:1003600081E080932A01DF91CF9108951F920F922F
:1003700000905F000F92112400905B000F922F936A
:100380003F934F935F936F937F938F939F93AF931D
:10039000BF93EF93FF93CF93DF93CDB7DEB78091F9
:1003A0002B0190912C01A0912D01B0912E0101976C
:1003B000A109B10980932B0190932C01A0932D01E9
:1003C000B0932E0180912B0190912C01A0912D01D1
:1003D000B0912E01892B8A2B8B2B89F4BDDF809164
:1003E000040190910501A0910601B091070180934D
:1003F0002B0190932C01A0932D01B0932E01DF913E
:10040000CF91FF91EF91BF91AF919F918F917F918C
:100410006F915F914F913F912F910F9000925B00F0
:100420000F9000925F000F901F901895CF93DF936D
:10043000CDB7DEB760970FB6F894DEBF0FBECDBF65
:100440006D837E838F83988729873A874B875C8764
:100450008D819E81AF81B88529853A854B855C85E4
:10046000BC01CD0180D2DC01CB0189839A83AB83AF
:10047000BC8389819A81AB81BC81892B8A2B8B2B90
:1004800029F489859A85AB85BC8511C089859A85B3
:10049000AB85BC858D839E83AF83B88789819A8124
:1004A000AB81BC8189879A87AB87BC87D1CFBC01E0
:1004B000CD0160960FB6F894DEBF0FBECDBFDF91C1
:1004C000CF910895CF93DF93CDB7DEB72A970FB6BC
:1004D000F894DEBF0FBECDBF9A83898389819A814C
:1004E000009719F0019749F005C081E090E09A83E8
:1004F000898304C01A82198201C0000089819A810F
:10050000009709F46BC0019709F069C08091290137
:10051000882F90E0AC0168E071E089E091E0AED214
:1005200080912901882F90E0AC0168E171E089E1B8
:1005300091E0A4D295D220912801222F30E0B90178
:10054000FFD1019721F483E28093080110C088D283
:1005500020912801222F30E0B901F2D1019721F436
:100560008AE28093080103C080E28093080178D278
:1005700020912801222F30E0B901E2D1019721F426
:1005800083E28093180110C06BD220912801222FA2
:1005900030E0B901D5D1019721F48AE280931801A6
:1005A00003C080E28093180180911701882321F411
:1005B00080912701882361F080912901803140F0EA
:1005C000109217011092270180E18093290107C042
:1005D000809129018F5F8093290101C000008981EA
:1005E0009A812A960FB6F894DEBF0FBECDBFDF9179
:1005F000CF910895CF93DF9300D0CDB7DEB79A8324
:10060000898389819A81009719F0019731F00AC096
:1006100081E090E09A83898308C081E090E09A832A
:10062000898303C01A821982000089819A81009708
:1006300069F0019709F00BC047DD68E071E081E0E7
:10064000BDDD68E171E081E1B9DD01C000008981B3
:100650009A810F900F90DF91CF9108950F931F9380
:10066000CF93DF93CDB7DEB7A8970FB6F894DEBF70
:100670000FBECDBF84E290E02FEFFC01208385E226
:1006800090E0FC01108287E290E020EFFC012083E3
:1006900088E290E02FE0FC0120838AE290E02FEFD7
:1006A000FC0120838BE290E0FC01108284EF91E05A
:1006B000A0E0B0E08B839C83AD83BE8384EF91E0A8
:1006C000A0E0B0E08F839887A987BA872F8138850B
:1006D00049855A858B819C81AD81BE81BC01CD014C
:1006E000A5DEDC01CB018B879C87AD87BE878B8520
:1006F0009C85AD85BE858F87988BA98BBA8B8B81A6
:100700009C81AD81BE812F85388949895A89BC0178
:10071000CD0129D1DA01C9018B8B9C8BAD8BBE8BAE
:100720008F819885A985BA852F85388949895A8905
:10073000BC01CD0118D1DA01C9018F8B988FA98F27
:10074000BA8F8FE291E09E8F8D8F8AE391E098A31C
:100750008F8F82E090E09C8F8B8F10922F018B897E
:100760009C89AD89BE898093300190933101A0931B
:100770003201B09333018B899C89AD89BE89809306
:10078000340190933501A0933601B093370182E68E
:1007900092E090933901809338018FEF80933A0172
:1007A0008F89988DA98DBA8D80933B0190933C01E0
:1007B000A0933D01B0933E018F89988DA98DBA8D8C
:1007C00080933F0190934001A0934101B093420177
:1007D0008AEF92E090934401809343018F8598893A
:1007E000A989BA89BC01CD0154DD80DD76DC1A828D
:1007F00019829BC089819A81880F991F9E012F5F62
:100800003F4F820F931F4C96FC0180819181FC0128
:10081000258136814781508589819A81880F991F6A
:10082000BE016F5F7F4F860F971F4C96FC01808142
:100830009181FC0181819281A381B48128173907BC
:100840004A075B0709F045C089819A81880F991F83
:100850009E012F5F3F4F820F931F4C96FC0100813A
:10086000118189819A81880F991F9E012F5F3F4FC7
:10087000820F931F4C96FC0180819181FC012185A0
:10088000328589819A81880F991FAE014F5F5F4F32
:10089000840F951F4C96FC0180819181FC01808121
:1008A000082E000C990BF9010995F80180838981C4
:1008B0009A81880F991F9E012F5F3F4F820F931FD0
:1008C0004C96FC0180819181FC0115821682178271
:1008D000108689819A81880F991F9E012F5F3F4F53
:1008E000820F931F4C96FC012081318189819A816E
:1008F000880F991FAE014F5F5F4F840F951F4C9675
:10090000FC0180819181FC0185819681A781B08560
:100910000196A11DB11DF90185839683A783B08738
:1009200089819A8101969A83898329813A818B8D65
:100930009C8D2817390708F45DCF10922A0157CFF4
:1009400097FB072E16F4009406D077FD08D02DD023
:1009500007FC05D03EF4909581959F4F08957095C2
:1009600061957F4F0895A1E21A2EAA1BBB1BFD01C2
:100970000DC0AA1FBB1FEE1FFF1FA217B307E4077E
:10098000F50720F0A21BB30BE40BF50B661F771FD6
:10099000881F991F1A9469F76095709580959095B6
:1009A0009B01AC01BD01CF010895AA1BBB1B51E106
:1009B00007C0AA1FBB1FA617B70710F0A61BB70BCF
:1009C000881F991F5A95A9F780959095BC01CD0174
:1009D00008958F929F92AF92BF92CF92DF92EF9243
:1009E000FF92CF93DF93EC01688179818A819B81AB
:1009F000611571058105910521F464E279ED8BE5BE
:100A000097E02DE133EF41E050E052D049015A0127
:100A10009B01AC01A7EAB1E467D06B017C01ACEEAD
:100A2000B4EFA50194016CD0DC01CB018C0D9D1DB0
:100A3000AE1DBF1DB7FF03C00197A109B048888351
:100A40009983AA83BB839F77DF91CF91FF90EF902B
:100A5000DF90CF90BF90AF909F908F900895B9CFC7
:100A600080E091E0B6CFA0E0B0E0809300019093E9
:100A70000101A0930201B09303010895681779075B
:100A800068F4FB01DC01E40FF51FA40FB51F02C0E1
:100A900002900E9241505040D8F7089500C0FB01DB
:100AA000DC0102C001900D9241505040D8F70895EA
:100AB000052E97FB16F400940FD057FD05D053DF99
:100AC00007FC02D046F408C050954095309521951A
:100AD0003F4F4F4F5F4F089590958095709561956A
:100AE0007F4F8F4F9F4F08950FD0A59F900DB49FBC
:100AF000900DA49F800D911D11240895B7FFF4CF90
:100B0000F3DF821B930B0895A29FB001B39FC00136
:100B1000A39F700D811D1124911DB29F700D811D29
:0A0B20001124911D0895F894FFCFF1
:100B2A000100000001000000200000000000000099
:100B3A00000000000000000020000000000000008B
:0A0B4A00000000000000000006019A
:00000001FF
