:1000000045C0000060C000005EC000005CC0000091
:100010005AC0000058C0000056C0000054C0000084
:1000200052C0000050C000004EC000004CC0000094
:100030004AC00000B4C1000046C0000044C0000037
:1000400042C0000040C000003EC000003CC00000B4
:100050003AC0000038C0000036C0000034C00000C4
:1000600032C0000030C000002EC000002CC00000D4
:100070002AC0000028C0000026C0000024C00000E4
:1000800022C0000020C000001EC0000011241FBEBE
:10009000CFEFD0E4DEBFCDBF11E0A0E0B1E0E6E8F5
:1000A000FEE000E00BBF02C007900D92A239B1073D
:1000B000D9F721E0A2E9B1E001C01D92A83BB20747
:1000C000E1F743D4DEC69CCFCF93DF93CDB7DEB745
:1000D00081E018D0DF91CF910895CF93DF93CDB712
:1000E000DEB784E690E0A6D088E30CD086E00AD0A4
:1000F0008FE008D081E006D08AE090E09BD0DF91CD
:10010000CF910895CF93DF931F92CDB7DEB7898348
:100110008BE290E02BE230E0F90120812F7BFC01A3
:10012000208385E290E02981FC0120838BE290E02E
:100130002BE230E0F90120812068FC0120830000DF
:100140008BE290E02BE230E0F90120812F77FC0177
:10015000208382E090E06ED00F90DF91CF910895E0
:10016000CF93DF931F92CDB7DEB789838BE290E008
:100170002BE230E0F90120812064FC01208385E23C
:1001800090E02981FC0120838BE290E02BE230E0BB
:10019000F90120812068FC01208300008BE290E0BF
:1001A0002BE230E0F90120812F77FC01208381E0F0
:1001B00090E040D00F90DF91CF910895CF93DF93DF
:1001C00000D000D0CDB7DEB78A837C836B838A8171
:1001D00089830FC0898191E0980F998317D08B8113
:1001E0009C819C012F5F3F4F3C832B83FC018081CE
:1001F000B7DF8B819C81FC018081882359F70F90A8
:100200000F900F900F90DF91CF910895CF93DF93D0
:100210001F92CDB7DEB789838981813120F489812E
:10022000815870DF03C0898181556CDF0F90DF91A9
:10023000CF910895CF93DF9300D000D000D0CDB7F9
:10024000DEB79E838D831A82198213C01C821B82A3
:1002500006C000008B819C8101969C838B838B81DF
:100260009C8187309340ACF389819A8101969A836F
:10027000898329813A818D819E812817390734F33A
:1002800026960FB6F894DEBF0FBECDBFDF91CF919B
:100290000895CF93DF9300D0CDB7DEB789836A830B
:1002A0008A81282F30E081E090E002C0880F991FFA
:1002B0002A95E2F7982F898189230F900F90DF917B
:1002C000CF910895CF93DF9300D000D0CDB7DEB7A4
:1002D00069837A838B839C8389819A81AB81BC817A
:1002E0008093040190930501A0930601B093070148
:1002F0008091040190910501A0910601B091070140
:100300008093930190939401A0939501B0939601EB
:100310000F900F900F900F90DF91CF910895CF9392
:10032000DF93CDB7DEB781E890E02BE0FC012083BE
:1003300088E890E02DE730E0FC01318320838FE6F0
:1003400090E022E0FC01208384E890E0FC0111822F
:1003500010828091040190910501A0910601B09155
:1003600007018093930190939401A0939501B0931A
:1003700096018FE590E02FE530E0F90120812068BB
:10038000FC012083DF91CF910895CF93DF93CDB708
:10039000DEB781E080939201DF91CF9108951F92A3
:1003A0000F9200905F000F92112400905B000F925B
:1003B0002F933F934F935F936F937F938F939F936D
:1003C000AF93BF93EF93FF93CF93DF93CDB7DEB798
:1003D0008091930190919401A0919501B091960123
:1003E0000197A109B1098093930190939401A0937F
:1003F0009501B09396018091930190919401A09101
:100400009501B0919601892B8A2B8B2B89F4BDDF46
:100410008091040190910501A0910601B09107011E
:100420008093930190939401A0939501B0939601CA
:10043000DF91CF91FF91EF91BF91AF919F918F91FC
:100440007F916F915F914F913F912F910F9000920B
:100450005B000F9000925F000F901F901895CF9354
:10046000DF93CDB7DEB760970FB6F894DEBF0FBE4F
:10047000CDBF6D837E838F83988729873A874B878B
:100480005C878D819E81AF81B88529853A854B85B2
:100490005C85BC01CD012FD4DC01CB0189839A831B
:1004A000AB83BC8389819A81AB81BC81892B8A2BE8
:1004B0008B2B29F489859A85AB85BC8511C08985EC
:1004C0009A85AB85BC858D839E83AF83B8878981F0
:1004D0009A81AB81BC8189879A87AB87BC87D1CF52
:1004E000BC01CD0160960FB6F894DEBF0FBECDBF44
:1004F000DF91CF910895CF93DF93CDB7DEB788E238
:1005000090E02FEEFC012083000086E290E0FC01E9
:10051000808160E0BEDE882311F481E3A9C086E219
:1005200090E0FC01808161E0B4DE882311F482E375
:100530009FC086E290E0FC01808162E0AADE882311
:1005400011F483E395C086E290E0FC01808163E0D2
:10055000A0DE882311F481E48BC088E290E02FEDC7
:10056000FC012083000086E290E0FC01808160E0D5
:1005700090DE882311F484E37BC086E290E0FC01E6
:10058000808161E086DE882311F485E371C086E214
:1005900090E0FC01808162E07CDE882311F486E338
:1005A00067C086E290E0FC01808163E072DE882310
:1005B00011F482E45DC088E290E02FEBFC0120831F
:1005C000000086E290E0FC01808160E062DE88232A
:1005D00011F487E34DC086E290E0FC01808161E088
:1005E00058DE882311F488E343C086E290E0FC01E2
:1005F000808162E04EDE882311F489E339C086E20F
:1006000090E0FC01808163E044DE882311F483E400
:100610002FC088E290E02FE7FC012083000086E2F3
:1006200090E0FC01808160E034DE882311F48AE2EE
:100630001FC086E290E0FC01808161E02ADE882311
:1006400011F480E315C086E290E0FC01808162E055
:1006500020DE882311F483E20BC086E290E0FC01E7
:10066000808163E016DE882311F484E401C080E019
:10067000DF91CF910895CF93DF9300D0CDB7DEB750
:100680008A838A81898323C08981882F90E0298188
:10069000222F30E021503109285F3E4FF90120819F
:1006A000885F9E4FFC0120838981882F90E02981FB
:1006B000222F30E021503109275E3E4FF901208181
:1006C000875E9E4FFC0120838981815089838981C7
:1006D0008823D1F60F900F90DF91CF910895CF939B
:1006E000DF93CDB7DEB72A970FB6F894DEBF0FBE03
:1006F000CDBF9A83898389819A81009719F00197E8
:1007000049F005C081E090E09A83898304C01A8291
:10071000198201C0000089819A81009709F45AC0AA
:10072000019709F058C080912C01A5DF61D3209179
:100730002A01222F30E0B901CBD2019721F483E2C4
:100740008093080110C054D320912A01222F30E059
:10075000B901BED2019721F48AE28093080103C057
:1007600080E28093080144D320912A01222F30E0B7
:10077000B901AED2019721F483E28093190110C030
:1007800037D320912A01222F30E0B901A1D201975D
:1007900021F48AE28093190103C080E28093190159
:1007A00080911701882321F480912801882361F02A
:1007B00080912C01813140F0109217011092280194
:1007C0008FE080932C0107C080912C018F5F809374
:1007D0002C0101C0000089819A812A960FB6F894F5
:1007E000DEBF0FBECDBFDF91CF910895CF93DF93D2
:1007F00000D0CDB7DEB79A83898389819A8100972B
:1008000019F0019731F00AC081E090E09A83898362
:1008100008C081E090E09A83898303C01A8219821C
:10082000000089819A810097A1F0019709F012C018
:100830004BDC81E0EBDC68E071E081E0BFDC69E18A
:1008400071E081E1BBDC80912B01E0DC8BED88DC89
:1008500001C0000089819A810F900F90DF91CF91A4
:100860000895CF93DF9300D0CDB7DEB79A83898305
:1008700089819A818130910589F0823091051CF43B
:10088000892B39F022C08230910589F00397A1F0BD
:100890001CC081E090E09A8389831AC02CDE8823F3
:1008A00029F082E090E09A83898312C011C083E02E
:1008B00090E09A8389830CC01EDE882329F481E0AE
:1008C00090E09A83898304C003C01A8219820000D1
:1008D00089819A818130910561F1823091051CF402
:1008E000892B49F12BC08230910519F0039729F12A
:1008F00025C001DE982F81E0933409F080E08093D9
:100900002B0180912B01882319F080E280932B0129
:10091000F2DD982F81E0923409F080E080932B0182
:1009200080912B01882321F080E180932B0106C068
:1009300005C0000003C0000001C0000089819A8149
:100940000F900F90DF91CF9108950F931F93CF9346
:10095000DF93CDB7DEB7E6970FB6F894DEBF0FBED4
:10096000CDBF84E290E02FEFFC01208385E290E090
:10097000FC01108287E290E020EFFC01208388E2F6
:1009800090E02FE0FC0120838AE290E02FEFFC0151
:1009900020838BE290E0FC01108284EF91E0A0E0E4
:1009A000B0E08B839C83AD83BE8384EF91E0A0E0B5
:1009B000B0E08F839887A987BA8784E690E0A0E0AB
:1009C000B0E08B879C87AD87BE872F8138854985AE
:1009D0005A858B819C81AD81BE81BC01CD013FDDFB
:1009E000DC01CB018F87988BA98BBA8B2B853C853B
:1009F0004D855E858F859889A989BA89BC01CD010D
:100A00002EDDDC01CB018F87988BA98BBA8B8F856C
:100A10009889A989BA898B8B9C8BAD8BBE8B8B8176
:100A20009C81AD81BE812B893C894D895E89BC0149
:100A3000CD0161D1DA01C9018F8B988FA98FBA8F4F
:100A40008F819885A985BA852B893C894D895E89D6
:100A5000BC01CD0150D1DA01C9018B8F9C8FAD8FC4
:100A6000BE8F8B859C85AD85BE852B893C894D8944
:100A70005E89BC01CD013FD1DA01C9018F8F98A3F6
:100A8000A9A3BAA386E0EBE8F1E0DE019596019018
:100A90000D928A95E1F783E090E09CA38BA31092DE
:100AA00097018F89988DA98DBA8D80939801909325
:100AB0009901A0939A01B0939B018F89988DA98D7C
:100AC000BA8D80939C0190939D01A0939E01B09359
:100AD0009F018FE693E09093A1018093A0018FEF97
:100AE0008093A2018B8D9C8DAD8DBE8D8093A301D3
:100AF0009093A401A093A501B093A6018B8D9C8D2A
:100B0000AD8DBE8D8093A7019093A801A093A901FC
:100B1000B093AA0186EF93E09093AC018093AB0170
:100B20008FEF8093AD018B8D9C8DAD8DBE8D8093AD
:100B3000AE019093AF01A093B001B093B1018B8D42
:100B40009C8DAD8DBE8D8093B2019093B301A09327
:100B5000B401B093B50181E394E09093B701809321
:100B6000B6018B899C89AD89BE89BC01CD01AADB08
:100B7000D6DBB3DA1A8219829BC089819A81880FE9
:100B8000991F9E012F5F3F4F820F931F8496FC0198
:100B900080819181FC012581368147815085898141
:100BA0009A81880F991FBE016F5F7F4F860F971F35
:100BB0008496FC0180819181FC0181819281A381D5
:100BC000B481281739074A075B0709F045C08981B6
:100BD0009A81880F991F9E012F5F3F4F820F931FAD
:100BE0008496FC010081118189819A81880F991F67
:100BF0009E012F5F3F4F820F931F8496FC018081DF
:100C00009181FC012185328589819A81880F991F04
:100C1000AE014F5F5F4F840F951F8496FC0180816A
:100C20009181FC018081082E000C990BF901099536
:100C3000F801808389819A81880F991F9E012F5F17
:100C40003F4F820F931F8496FC0180819181FC01AC
:100C5000158216821782108689819A81880F991FC2
:100C60009E012F5F3F4F820F931F8496FC012081CE
:100C7000318189819A81880F991FAE014F5F5F4F43
:100C8000840F951F8496FC0180819181FC018581F0
:100C90009681A781B0850196A11DB11DF9018583BB
:100CA0009683A783B08789819A8101969A838983E5
:100CB00029813A818BA19CA12817390708F45DCFBF
:100CC0000000809192018823E1F31092920152CFAB
:100CD00097FB072E16F4009406D077FD08D02DD090
:100CE00007FC05D03EF4909581959F4F089570952F
:100CF00061957F4F0895A1E21A2EAA1BBB1BFD012F
:100D00000DC0AA1FBB1FEE1FFF1FA217B307E407EA
:100D1000F50720F0A21BB30BE40BF50B661F771F42
:100D2000881F991F1A9469F7609570958095909522
:100D30009B01AC01BD01CF010895AA1BBB1B51E172
:100D400007C0AA1FBB1FA617B70710F0A61BB70B3B
:100D5000881F991F5A95A9F780959095BC01CD01E0
:100D600008958F929F92AF92BF92CF92DF92EF92AF
:100D7000FF92CF93DF93EC01688179818A819B8117
:100D8000611571058105910521F464E279ED8BE52A
:100D900097E02DE133EF41E050E038D049015A01AE
:100DA0009B01AC01A7EAB1E44DD06B017C01ACEE34
:100DB000B4EFA501940152D0DC01CB018C0D9D1D37
:100DC000AE1DBF1DB7FF03C00197A109B0488883BE
:100DD0009983AA83BB839F77DF91CF91FF90EF9098
:100DE000DF90CF90BF90AF909F908F900895B9CF34
:100DF00080E091E0B6CFA0E0B0E080930001909356
:100E00000101A0930201B09303010895052E97FB01
:100E100016F400940FD057FD05D06DDF07FC02D00B
:100E200046F408C050954095309521953F4F4F4F5F
:100E30005F4F089590958095709561957F4F8F4F86
:100E40009F4F08950FD0A59F900DB49F900DA49F24
:100E5000800D911D11240895B7FFF4CFF3DF821B9D
:100E6000930B0895A29FB001B39FC001A39F700D83
:100E7000811D1124911DB29F700D811D1124911DA2
:060E80000895F894FFCF75
:100E8600010000000100000020000000000000003A
:100E9600000000000000000000200000000000002C
:100EA6000000000000000000000014100150656FF3
:100EB600706C6520646F6E2774207468696E6B2091
:100EC600756E69766572736520776F726B206974CB
:100ED60073207761792C2062757420697420646FA1
:100EE6002E202D204E6577746F6E00310032003350
:100EF6000041003400350036004200370038003922
:100F06000043002A003000230044009701A201ADEF
:020F16000100D8
:00000001FF
