:1000000045C0000060C000005EC000005CC0000091
:100010005AC0000058C0000056C0000054C0000084
:1000200052C0000050C000004EC000004CC0000094
:100030004AC00000B4C1000046C0000044C0000037
:1000400042C0000040C000003EC000003CC00000B4
:100050003AC0000038C0000036C0000034C00000C4
:1000600032C0000030C000002EC000002CC00000D4
:100070002AC0000028C0000026C0000024C00000E4
:1000800022C0000020C000001EC0000011241FBEBE
:10009000CFEFD0E4DEBFCDBF11E0A0E0B1E0E4ECF3
:1000A000F0E100E00BBF02C007900D92A835B10748
:1000B000D9F721E0A8E5B1E001C01D92A039B2074F
:1000C000E1F744D5FDC79CCFCF93DF93CDB7DEB723
:1000D00081E018D0DF91CF910895CF93DF93CDB712
:1000E000DEB784E690E0A6D088E30CD086E00AD0A4
:1000F0008FE008D081E006D08AE090E09BD0DF91CD
:10010000CF910895CF93DF931F92CDB7DEB7898348
:100110008BE290E02BE230E0F90120812F7BFC01A3
:10012000208385E290E02981FC0120838BE290E02E
:100130002BE230E0F90120812068FC0120830000DF
:100140008BE290E02BE230E0F90120812F77FC0177
:10015000208382E090E06ED00F90DF91CF910895E0
:10016000CF93DF931F92CDB7DEB789838BE290E008
:100170002BE230E0F90120812064FC01208385E23C
:1001800090E02981FC0120838BE290E02BE230E0BB
:10019000F90120812068FC01208300008BE290E0BF
:1001A0002BE230E0F90120812F77FC01208381E0F0
:1001B00090E040D00F90DF91CF910895CF93DF93DF
:1001C00000D000D0CDB7DEB78A837C836B838A8171
:1001D00089830FC0898191E0980F998317D08B8113
:1001E0009C819C012F5F3F4F3C832B83FC018081CE
:1001F000B7DF8B819C81FC018081882359F70F90A8
:100200000F900F900F90DF91CF910895CF93DF93D0
:100210001F92CDB7DEB789838981813120F489812E
:10022000815870DF03C0898181556CDF0F90DF91A9
:10023000CF910895CF93DF9300D000D000D0CDB7F9
:10024000DEB79E838D831A82198213C01C821B82A3
:1002500006C000008B819C8101969C838B838B81DF
:100260009C8187309340ACF389819A8101969A836F
:10027000898329813A818D819E812817390734F33A
:1002800026960FB6F894DEBF0FBECDBFDF91CF919B
:100290000895CF93DF9300D0CDB7DEB789836A830B
:1002A0008A81282F30E081E090E002C0880F991FFA
:1002B0002A95E2F7982F898189230F900F90DF917B
:1002C000CF910895CF93DF9300D000D0CDB7DEB7A4
:1002D00069837A838B839C8389819A81AB81BC817A
:1002E0008093040190930501A0930601B093070148
:1002F0008091040190910501A0910601B091070140
:100300008093590190935A01A0935B01B0935C01D3
:100310000F900F900F900F90DF91CF910895CF9392
:10032000DF93CDB7DEB781E890E02BE0FC012083BE
:1003300088E890E02DE730E0FC01318320838FE6F0
:1003400090E022E0FC01208384E890E0FC0111822F
:1003500010828091040190910501A0910601B09155
:1003600007018093590190935A01A0935B01B093C8
:100370005C018FE590E02FE530E0F90120812068F5
:10038000FC012083DF91CF910895CF93DF93CDB708
:10039000DEB781E080935801DF91CF9108951F92DD
:1003A0000F9200905F000F92112400905B000F925B
:1003B0002F933F934F935F936F937F938F939F936D
:1003C000AF93BF93EF93FF93CF93DF93CDB7DEB798
:1003D0008091590190915A01A0915B01B0915C010B
:1003E0000197A109B1098093590190935A01A093F3
:1003F0005B01B0935C018091590190915A01A091E9
:100400005B01B0915C01892B8A2B8B2B89F4BDDFBA
:100410008091040190910501A0910601B09107011E
:100420008093590190935A01A0935B01B0935C01B2
:10043000DF91CF91FF91EF91BF91AF919F918F91FC
:100440007F916F915F914F913F912F910F9000920B
:100450005B000F9000925F000F901F901895CF9354
:10046000DF93CDB7DEB760970FB6F894DEBF0FBE4F
:10047000CDBF6D837E838F83988729873A874B878B
:100480005C878D819E81AF81B88529853A854B85B2
:100490005C85BC01CD014ED5DC01CB0189839A83FB
:1004A000AB83BC8389819A81AB81BC81892B8A2BE8
:1004B0008B2B29F489859A85AB85BC8511C08985EC
:1004C0009A85AB85BC858D839E83AF83B8878981F0
:1004D0009A81AB81BC8189879A87AB87BC87D1CF52
:1004E000BC01CD0160960FB6F894DEBF0FBECDBF44
:1004F000DF91CF910895CF93DF93CDB7DEB788E238
:1005000090E02FEEFC012083000086E290E0FC01E9
:10051000808160E0BEDE882311F481E3A9C086E219
:1005200090E0FC01808161E0B4DE882311F482E375
:100530009FC086E290E0FC01808162E0AADE882311
:1005400011F483E395C086E290E0FC01808163E0D2
:10055000A0DE882311F481E48BC088E290E02FEDC7
:10056000FC012083000086E290E0FC01808160E0D5
:1005700090DE882311F484E37BC086E290E0FC01E6
:10058000808161E086DE882311F485E371C086E214
:1005900090E0FC01808162E07CDE882311F486E338
:1005A00067C086E290E0FC01808163E072DE882310
:1005B00011F482E45DC088E290E02FEBFC0120831F
:1005C000000086E290E0FC01808160E062DE88232A
:1005D00011F487E34DC086E290E0FC01808161E088
:1005E00058DE882311F488E343C086E290E0FC01E2
:1005F000808162E04EDE882311F489E339C086E20F
:1006000090E0FC01808163E044DE882311F483E400
:100610002FC088E290E02FE7FC012083000086E2F3
:1006200090E0FC01808160E034DE882311F48AE2EE
:100630001FC086E290E0FC01808161E02ADE882311
:1006400011F480E315C086E290E0FC01808162E055
:1006500020DE882311F483E20BC086E290E0FC01E7
:10066000808163E016DE882311F484E401C080E019
:10067000DF91CF910895CF93DF9300D0CDB7DEB750
:100680008A838A81898323C08981882F90E0298188
:10069000222F30E021503109285F3E4FF90120819F
:1006A000885F9E4FFC0120838981882F90E02981FB
:1006B000222F30E021503109275E3E4FF901208181
:1006C000875E9E4FFC0120838981815089838981C7
:1006D0008823D1F60F900F90DF91CF910895CF939B
:1006E000DF9300D0CDB7DEB78A83198211C089812C
:1006F000882F90E0885F9E4FFC0110828981882FAF
:1007000090E0875E9E4FFC01108289818F5F898314
:1007100099818A81891758F70F900F90DF91CF91B7
:100720000895CF93DF93CDB7DEB72A970FB6F8942D
:10073000DEBF0FBECDBF9A83898389819A810097DE
:1007400019F00197C1F014C081E080932D0184E17C
:1007500080932A0180915D01813321F080915D01B8
:10076000803329F481E090E09A83898305C004C036
:100770001A82198201C0000089819A81009709F4C8
:100780005AC0019709F058C080912D0174DF4FD4F1
:1007900020912A01222F30E0B901B9D3019721F429
:1007A00083E28093080110C042D420912A01222FB5
:1007B00030E0B901ACD3019721F48AE280930801BB
:1007C00003C080E28093080132D420912A01222FB5
:1007D00030E0B9019CD3019721F483E280931901A1
:1007E00010C025D420912A01222F30E0B9018FD3E7
:1007F000019721F48AE28093190103C080E280937B
:10080000190180911801882321F4809129018823FE
:1008100061F080912D01803140F01092180110920A
:10082000290180E180932D0107C080912D018F5F08
:1008300080932D0101C0000089819A812A960FB60C
:10084000F894DEBF0FBECDBFDF91CF910895CF9357
:10085000DF9300D0CDB7DEB79A8389834CDE8093D7
:100860005D0189819A818230910531F18330910552
:100870002CF4009749F00197A9F047C08330910507
:1008800049F10497D1F141C08BED80932C01109276
:1008900075011092800110928C0181E090E09A83A2
:1008A000898336C080915D01813329F482E090E034
:1008B0009A8389832DC02CC080915E01882329F4FE
:1008C00082E090E09A83898323C083E090E09A835A
:1008D00089831EC080918C01853050F483E090E0C4
:1008E0009A83898380918C018F5F80938C0110C0E3
:1008F00084E090E09A8389830BC080915D0181330D
:1009000019F41A82198204C003C01A8219820000E5
:1009100089819A8182309105B1F08330910534F458
:10092000009709F444C0019741F042C0833091051B
:10093000D1F0049709F433C03BC0C6DB66E371E035
:1009400081E03CDC35C0C0DB68E071E081E036DC92
:1009500069E171E081E132DC80912B0157DC80910B
:100960002C01FEDB25C010925F018CE680935D01B7
:10097000ABDB68E071E081E021DC69E171E081E1FD
:100980001DDC80912B0142DC80918C0181708823D9
:1009900019F488E5E5DB0CC08BEDE2DB09C094DBE4
:1009A00067E471E081E00ADC80E199DE01C00000CB
:1009B00089819A810F900F90DF91CF910895CF9305
:1009C000DF9300D0CDB7DEB79A83898394DD80931F
:1009D0005D0189819A8181309105A1F08230910574
:1009E0001CF4892B39F027C082309105A9F00397B8
:1009F000C1F021C080E180932B0181E090E09A83D7
:100A000089831CC080915D01882329F082E090E0F9
:100A10009A83898313C012C083E090E09A8389830C
:100A20000DC080915D01882329F481E090E09A83D4
:100A3000898304C003C01A821982000089819A81C7
:100A40008130910521F1823091051CF4892B09F147
:100A500023C08230910519F00397E9F01DC0809101
:100A60002B01803139F480915D01833419F480E2E7
:100A700080932B0180912B01803241F480915D01A4
:100A8000823421F480E180932B0106C005C0000070
:100A900003C0000001C0000089819A810F900F906F
:100AA000DF91CF910895CF93DF9300D0CDB7DEB71C
:100AB0009A83898389819A81009719F0019741F07F
:100AC0000CC010925E0181E090E09A83898308C097
:100AD00081E090E09A83898303C01A821982000022
:100AE00089819A81009751F1019709F028C080917E
:100AF0002B01803179F480911701803259F0809177
:100B00001701882339F081E080935E0188E58093A6
:100B10002C0113C080912B01803279F4809128013F
:100B2000803259F080912801882339F081E0809348
:100B30005E0188E580932C0102C001C0000089811C
:100B40009A810F900F90DF91CF9108950F931F938B
:100B5000CF93DF93CDB7DEB7EC970FB6F894DEBF37
:100B60000FBECDBF84E290E02FEFFC01208385E231
:100B700090E0FC01108287E290E020EFFC012083EE
:100B800088E290E02FE0FC0120838AE290E02FEFE2
:100B9000FC0120838BE290E0FC01108284EF91E065
:100BA000A0E0B0E08B839C83AD83BE8384EF91E0B3
:100BB000A0E0B0E08F839887A987BA878AE090E0A9
:100BC000A0E0B0E08B879C87AD87BE8784E690E08D
:100BD000A0E0B0E08F87988BA98BBA8B2F813885E6
:100BE00049855A858B819C81AD81BE81BC01CD0137
:100BF00036DCDC01CB018B8B9C8BAD8BBE8B2B85CC
:100C00003C854D855E858B899C89AD89BE89BC01FB
:100C1000CD0125DCDC01CB018B8B9C8BAD8BBE8B9E
:100C20002F85388949895A898B899C89AD89BE89E4
:100C3000BC01CD0114DCDC01CB018B8B9C8BAD8B1B
:100C4000BE8B8B899C89AD89BE898F8B988FA98F2C
:100C5000BA8F8B819C81AD81BE812F89388D498D62
:100C60005A8DBC01CD0166D1DA01C9018B8F9C8FF1
:100C7000AD8FBE8F8F819885A985BA852F89388DD4
:100C8000498D5A8DBC01CD0155D1DA01C9018F8F33
:100C900098A3A9A3BAA38B859C85AD85BE852F8912
:100CA000388D498D5A8DBC01CD0144D1DA01C9017D
:100CB0008BA39CA3ADA3BEA38F859889A989BA896C
:100CC0002F89388D498D5A8DBC01CD0133D1DA0180
:100CD000C9018FA398A7A9A7BAA784E090E09CA711
:100CE0008BA710925F018B8D9C8DAD8DBE8D8093F7
:100CF000600190936101A0936201B09363018B8DB9
:100D00009C8DAD8DBE8D8093640190936501A09301
:100D10006601B093670181E993E090936901809344
:100D2000680110926A018F8D98A1A9A1BAA1809340
:100D30006B0190936C01A0936D01B0936E018F8D48
:100D400098A1A9A1BAA180936F0190937001A0937B
:100D50007101B093720187E294E0909374018093E3
:100D60007301109275018BA19CA1ADA1BEA18093CE
:100D7000760190937701A0937801B09379018BA1CC
:100D80009CA1ADA1BEA180937A0190937B01A09319
:100D90007C01B0937D018FED94E090937F0180936F
:100DA0007E01109280018FA198A5A9A5BAA5809374
:100DB000810190938201A0938301B09384018FA15C
:100DC00098A5A9A5BAA58093850190938601A093C3
:100DD0008701B093880183E595E090938A01809321
:100DE00089018F89988DA98DBA8DBC01CD016ADAF0
:100DF00096DA73D91A8219827AC089819A81880F0A
:100E0000991F825D9E4FFC0180819181FC012581AB
:100E100036814781508589819A81880F991F825D2B
:100E20009E4FFC0180819181FC0181819281A3818F
:100E3000B481281739074A075B07A9F589819A8188
:100E4000880F991F825D9E4FFC010081118189816D
:100E50009A81880F991F825D9E4FFC01808191814C
:100E6000FC012185328589819A81880F991F825DD5
:100E70009E4FFC0180819181FC018081082E000C35
:100E8000990BF9010995F801808389819A81880F6E
:100E9000991F825D9E4FFC0180819181FC0115822A
:100EA00016821782108689819A81880F991F825D28
:100EB0009E4FFC012081318189819A81880F991F81
:100EC000825D9E4FFC0180819181FC01858196812C
:100ED000A781B0850196A11DB11DF9018583968377
:100EE000A783B08789819A8101969A838983298112
:100EF0003A818BA59CA52817390708F47ECF0000FE
:100F0000809158018823E1F31092580173CF97FB29
:100F1000072E16F4009406D077FD08D02DD007FCDC
:100F200005D03EF4909581959F4F089570956195F9
:100F30007F4F0895A1E21A2EAA1BBB1BFD010DC015
:100F4000AA1FBB1FEE1FFF1FA217B307E407F50779
:100F500020F0A21BB30BE40BF50B661F771F881F55
:100F6000991F1A9469F760957095809590959B01EB
:100F7000AC01BD01CF010895AA1BBB1B51E107C005
:100F8000AA1FBB1FA617B70710F0A61BB70B881F19
:100F9000991F5A95A9F780959095BC01CD010895A8
:100FA0008F929F92AF92BF92CF92DF92EF92FF9279
:100FB000CF93DF93EC01688179818A819B816115F0
:100FC00071058105910521F464E279ED8BE597E0E7
:100FD0002DE133EF41E050E038D049015A019B0147
:100FE000AC01A7EAB1E44DD06B017C01ACEEB4EFEB
:100FF000A501940152D0DC01CB018C0D9D1DAE1DCD
:10100000BF1DB7FF03C00197A109B048888399832A
:10101000AA83BB839F77DF91CF91FF90EF90DF9002
:10102000CF90BF90AF909F908F900895B9CF80E000
:1010300091E0B6CFA0E0B0E0809300019093010171
:10104000A0930201B09303010895052E97FB16F4B7
:1010500000940FD057FD05D06DDF07FC02D046F499
:1010600008C050954095309521953F4F4F4F5F4FA9
:10107000089590958095709561957F4F8F4F9F4F04
:1010800008950FD0A59F900DB49F900DA49F800D43
:10109000911D11240895B7FFF4CFF3DF821B930B4A
:1010A0000895A29FB001B39FC001A39F700D811D41
:1010B0001124911DB29F700D811D1124911D089561
:0410C000F894FFCFD2
:1010C40001000000010000002000000000000000FA
:1010D40000000000000000000020000000000000EC
:1010E400000000000000000000001410DB015F019C
:1010F4006A01750180012020204C43445F52414322
:101104004552212020200020594F5520415245208E
:08111400444541443A28200043
:00000001FF
