:1000000045C0000060C000005EC000005CC0000091
:100010005AC0000058C0000056C0000054C0000084
:1000200052C0000050C000004EC000004CC0000094
:100030004AC0000089C0000046C0000044C0000063
:1000400042C0000040C000003EC000003CC00000B4
:100050003AC0000038C0000036C0000034C00000C4
:1000600032C0000030C000002EC000002CC00000D4
:100070002AC0000028C0000026C0000024C00000E4
:1000800022C0000020C000001EC0000011241FBEBE
:10009000CFEFD0E4DEBFCDBF11E0A0E0B1E0ECE0F7
:1000A000F6E000E00BBF02C007900D92A430B1074C
:1000B000D9F721E0A4E0B1E001C01D92A031B20760
:1000C000E1F751D2A1C29CCFCF93DF93CDB7DEB77A
:1000D00081E890E02BE0FC01208388E890E02DE7A8
:1000E00030E0FC01318320838FE690E022E0FC01C8
:1000F000208384E890E0FC0111821082809100014D
:1001000090910101A0910201B0910301809305013A
:1001100090930601A0930701B09308018FE590E04A
:100120002FE530E0F90120812068FC012083DF9178
:10013000CF910895CF93DF93CDB7DEB781E0809361
:100140000401DF91CF9108951F920F9200905F00FC
:100150000F92112400905B000F922F933F934F93C7
:100160005F936F937F938F939F93AF93BF93EF931F
:10017000FF93CF93DF93CDB7DEB7809105019091C8
:100180000601A0910701B09108010197A109B109E9
:100190008093050190930601A0930701B093080195
:1001A0008091050190910601A0910701B09108018D
:1001B000892B8A2B8B2B89F4BDDF809100019091D4
:1001C0000101A0910201B091030180930501909378
:1001D0000601A0930701B0930801DF91CF91FF9131
:1001E000EF91BF91AF919F918F917F916F915F91AF
:1001F0004F913F912F910F9000925B000F900092D2
:100200005F000F901F901895CF93DF9300D000D020
:10021000CDB7DEB769837A838B839C8389819A818A
:10022000AB81BC818093000190930101A0930201F6
:10023000B09303018091000190910101A09102010E
:10024000B09103018093050190930601A0930701EB
:10025000B09308010F900F900F900F90DF91CF9106
:100260000895CF93DF93CDB7DEB780E290E0FC0135
:100270008081809583708093090180910E01882F81
:1002800090E08130910509F45DC0823091051CF445
:10029000892B49F0BEC08230910509F4B2C00397A2
:1002A00009F4B3C0B6C081E080930E0180910901CA
:1002B000882F90E081709927892B81F08091090126
:1002C000882F90E082709927892B41F480910A0150
:1002D000893020F482E080930E0133C080910901BF
:1002E000882F90E082709927892B81F080910901F5
:1002F000882F90E081709927892B41F480910A0121
:10030000882321F083E080930E011BC080910901B6
:10031000882F90E081709927892B61F480910901E1
:10032000882F90E082709927892B21F481E08093B7
:100330000E0107C080910901833019F410920E015B
:100340006BC06AC080910901882F90E08170992765
:10035000892B59F080910901882F90E082709927AC
:10036000892B19F010920E014BC080910901882F42
:1003700090E081709927892B81F080910901882F65
:1003800090E082709927892B41F480910A0189308D
:1003900020F482E080930E0133C080910901882F00
:1003A00090E082709927892B81F080910901882F34
:1003B00090E081709927892B41F480910A0188236C
:1003C00021F083E080930E011BC080910901882FEA
:1003D00090E081709927892B61F480910901882F21
:1003E00090E082709927892B21F481E080930E019F
:1003F00007C080910901833019F410920E010CC0DE
:100400000BC081E080930E0107C081E080930E0154
:1004100003C010920E01000080910E01882F90E021
:1004200081309105D9F0823091051CF4892B39F087
:1004300016C08230910531F0039751F010C0109230
:100440000A010DC080910A018F5F80930A0107C0E5
:1004500080910A01815080930A0101C00000DF9160
:10046000CF910895CF93DF931F92CDB7DEB780E28F
:1004700090E0FC01808180958370898380E290E028
:10048000FC018081809583708093090180910F0128
:10049000882F90E08130910549F082309105B9F0C4
:1004A000892B29F581E080930F0124C08981813057
:1004B00031F08981823019F08981833021F482E022
:1004C00080930F0117C081E080930F0113C08981D1
:1004D000813031F08981823019F08981833021F4B3
:1004E00082E080930F0106C010920F0103C01092AA
:1004F0000F01000080910F01882F90E0813091055D
:1005000069F18230910531F0892B09F028C01092F1
:100510000B0125C080910B01823020F481E0809393
:100520000D0116C080910B01823040F080910B01CB
:100530008F3120F48AE080930D010AC080910B0175
:100540008F3130F084E080930D018EE180930B01B8
:1005500080910B018F5F80930B0101C000000F9011
:10056000DF91CF910895CF93DF93CDB7DEB781E2CE
:1005700090E0FC01108282E290E02FEFFC012083EA
:1005800084E290E02FEFFC01208385E290E0FC0103
:10059000108264E670E080E090E036DE95DD109237
:1005A0000E0110920F015EDF90910C0180910D0100
:1005B000981788F080910901813041F080910901FC
:1005C000823021F080910901833029F44ADE81E0F4
:1005D00080930C0105C080910C018F5F80930C010A
:1005E00080910F01882311F410920C0185E290E0B4
:1005F00020910A01FC0120830000809104018823DE
:0C060000E1F310920401CFCFF894FFCF7B
:04060C0001000000E9
:00000001FF
