:100000000C942A000C9434000C9434000C943400AA
:100010000C9434000C9434000C9434000C94340090
:100020000C9434000C9434000C9434000C94340080
:100030000C9434000C9434000C9434000C94340070
:100040000C9434000C9434000C9434000C94340060
:100050000C94340011241FBECFE5D8E0DEBFCDBF25
:100060000E9484000C9419020C940000CF93DF933B
:1000700000D01F92CDB7DEB789836A834B838B8113
:10008000882379F08A81282F30E081E090E0022EE9
:1000900002C0880F991F0A94E2F7982F8981892B53
:1000A0000FC08A81282F30E081E090E0022E02C04C
:1000B000880F991F0A94E2F7982F909589818923D8
:1000C0000F900F900F90DF91CF910895CF93DF9312
:1000D00000D0CDB7DEB789836A838981882F90E00D
:1000E0002A81222F30E002C0959587952A95E2F764
:1000F0008170992721E0009709F420E0822F0F906A
:100100000F90DF91CF9108950F931F93CF93DF93BB
:10011000CDB7DEB78AE390E0FC0110828BE390E07C
:10012000FC01108284E390E02FEFFC01208385E343
:1001300090E0FC01108289E390E0FC018081882F2F
:1001400090E08F7099278D309105C4F089E390E09D
:10015000FC018081882F90E08F7099278031910574
:100160006CF405E310E083E390E0FC01808141E062
:1001700060E00E943600F80180830CC005E310E0C7
:1001800083E390E0FC01808140E060E00E94360063
:10019000F801808389E390E0FC018081882F90E062
:1001A0008F7099278A309105C4F089E390E0FC01B3
:1001B0008081882F90E08F709927803191056CF4B1
:1001C00005E310E083E390E0FC01808141E061E021
:1001D0000E943600F80180830CC005E310E083E341
:1001E00090E0FC01808140E061E00E943600F8016F
:1001F000808389E390E0FC018081882F90E08F70FC
:10020000992787309105C4F089E390E0FC01808153
:10021000882F90E08F709927803191056CF405E369
:1002200010E083E390E0FC01808141E062E00E9405
:100230003600F80180830CC005E310E085E390E010
:10024000FC01808140E062E00E943600F80180837A
:1002500089E390E0FC018081882F90E08F709927DE
:1002600085309105C4F089E390E0FC018081882FFE
:1002700090E08F709927803191056CF405E310E0D0
:1002800083E390E0FC01808141E063E00E9436005E
:10029000F80180830CC005E310E083E390E0FC01EB
:1002A000808140E063E00E943600F801808389E3AA
:1002B00090E0FC018081882F90E08F709927833037
:1002C0009105C4F089E390E0FC018081882F90E0E3
:1002D0008F709927803191056CF405E310E083E37A
:1002E00090E0FC01808141E064E00E943600F8016A
:1002F00080830CC005E310E083E390E0FC01808183
:1003000040E064E00E943600F801808389E390E0D9
:10031000FC018081882F90E08F70992718161906AC
:10032000C4F489E390E0FC018081882F90E08F7015
:100330009927803191056CF405E310E083E390E0A8
:10034000FC01808141E065E00E943600F801808375
:100350000CC005E310E083E390E0FC01808140E005
:1003600065E00E943600F801808389E390E0FC019B
:100370008081882F90E08F70992718161906C4F491
:1003800089E390E0FC018081882F90E08F709927AD
:10039000853091056CF405E310E083E390E0FC0107
:1003A000808141E066E00E943600F80180830CC045
:1003B00005E310E083E390E0FC01808140E066E02B
:1003C0000E943600F801808389E390E0FC0180817F
:1003D00064E00E9466008130F9F489E390E0FC015A
:1003E000808165E00E9466008130B1F489E390E08D
:1003F000FC01808166E00E946600882369F405E3C1
:1004000010E083E390E0FC01808141E067E00E941E
:100410003600F80180838FCE05E310E083E390E09F
:10042000FC01808140E067E00E943600F801808393
:0604300082CEF894FFCF1C
:00000001FF
