:100000000C942A000C9434000C9434000C943400AA
:100010000C9434000C9434000C9434000C94340090
:100020000C9434000C9434000C9434000C94340080
:100030000C9434000C9434000C9434000C94340070
:100040000C9434000C9434000C9434000C94340060
:100050000C94340011241FBECFE5D8E0DEBFCDBF25
:100060000E9436000C9461000C9400001ABA8FEFC5
:100070008BBB17BA88BB84BB15BAA0E0F0E0E0E008
:100080008A2F9F2F6E2F49B326B330E0082E02C06F
:10009000359527950A94E2F7722F717050E09A0116
:1000A000082E02C0359527950A94E2F7322F317059
:1000B000272F230F620F01968830910521F765BB2A
:0600C000DFCFF894FFCF32
:00000001FF
