:1000000045C0000061C000005FC000005DC000008E
:100010005BC0000059C0000057C0000055C0000080
:1000200053C0000051C000004FC000004DC0000090
:100030004BC00000B5C1000047C0000045C0000033
:1000400043C0000041C000003FC000003DC00000B0
:100050003BC0000039C0000037C0000035C00000C0
:1000600033C0000031C000002FC000002DC00000D0
:100070002BC0000029C0000027C0000025C00000E0
:1000800023C0000021C000001FC0000011241FBEBB
:10009000CFEFD0E4DEBFCDBF11E0A0E0B1E0E6E2FB
:1000A000F1E100E00BBF02C007900D92A835B10747
:1000B000D9F721E0A8E5B1E001C01D92A339B2074C
:1000C000E1F775D50C9491089BCFCF93DF93CDB713
:1000D000DEB781E018D0DF91CF910895CF93DF9301
:1000E000CDB7DEB784E690E0A6D088E30CD086E0FA
:1000F0000AD08FE008D081E006D08AE090E09BD063
:10010000DF91CF910895CF93DF931F92CDB7DEB7E4
:1001100089838BE290E02BE230E0F90120812F7B94
:10012000FC01208385E290E02981FC0120838BE2A1
:1001300090E02BE230E0F90120812068FC0120836F
:1001400000008BE290E02BE230E0F90120812F7774
:10015000FC01208382E090E06ED00F90DF91CF9180
:100160000895CF93DF931F92CDB7DEB789838BE2DB
:1001700090E02BE230E0F90120812064FC01208333
:1001800085E290E02981FC0120838BE290E02BE264
:1001900030E0F90120812068FC01208300008BE21F
:1001A00090E02BE230E0F90120812F77FC012083E1
:1001B00081E090E040D00F90DF91CF910895CF93F0
:1001C000DF9300D000D0CDB7DEB78A837C836B830A
:1001D0008A8189830FC0898191E0980F998317D014
:1001E0008B819C819C012F5F3F4F3C832B83FC01C3
:1001F0008081B7DF8B819C81FC018081882359F746
:100200000F900F900F900F90DF91CF910895CF93A3
:10021000DF931F92CDB7DEB789838981813120F4C6
:100220008981815870DF03C0898181556CDF0F900F
:10023000DF91CF910895CF93DF9300D000D000D00D
:10024000CDB7DEB79E838D831A82198213C01C82BC
:100250001B8206C000008B819C8101969C838B834E
:100260008B819C8187309340ACF389819A81019680
:100270009A83898329813A818D819E812817390744
:1002800034F326960FB6F894DEBF0FBECDBFDF91D4
:10029000CF910895CF93DF9300D0CDB7DEB7898398
:1002A0006A838A81282F30E081E090E002C0880FC5
:1002B000991F2A95E2F7982F898189230F900F9033
:1002C000DF91CF910895CF93DF9300D000D0CDB7C9
:1002D000DEB769837A838B839C8389819A81AB8122
:1002E000BC818093040190930501A0930601B09313
:1002F00007018091040190910501A0910601B09140
:1003000007018093590190935A01A0935B01B09328
:100310005C010F900F900F900F90DF91CF91089597
:10032000CF93DF93CDB7DEB781E890E02BE0FC01FF
:10033000208388E890E02DE730E0FC0131832083C2
:100340008FE690E022E0FC01208384E890E0FC014D
:10035000118210828091040190910501A091060103
:10036000B09107018093590190935A01A0935B01CA
:10037000B0935C018FE590E02FE530E0F90120813A
:100380002068FC012083DF91CF910895CF93DF9304
:10039000CDB7DEB781E080935801DF91CF9108950A
:1003A0001F920F9200905F000F92112400905B004B
:1003B0000F922F933F934F935F936F937F938F93FE
:1003C0009F93AF93BF93EF93FF93CF93DF93CDB7FB
:1003D000DEB78091590190915A01A0915B01B091D3
:1003E0005C010197A109B1098093590190935A01C9
:1003F000A0935B01B0935C018091590190915A01E7
:10040000A0915B01B0915C01892B8A2B8B2B89F425
:10041000BDDF8091040190910501A0910601B0918A
:1004200007018093590190935A01A0935B01B09307
:100430005C01DF91CF91FF91EF91BF91AF919F91BF
:100440008F917F916F915F914F913F912F910F907D
:1004500000925B000F9000925F000F901F90189524
:10046000CF93DF93CDB7DEB760970FB6F894DEBFBA
:100470000FBECDBF6D837E838F83988729873A8790
:100480004B875C878D819E81AF81B88529853A85B0
:100490004B855C85BC01CD017ED5DC01CB01898318
:1004A0009A83AB83BC8389819A81AB81BC81892B80
:1004B0008A2B8B2B29F489859A85AB85BC8511C045
:1004C00089859A85AB85BC858D839E83AF83B887EC
:1004D00089819A81AB81BC8189879A87AB87BC87E8
:1004E000D1CFBC01CD0160960FB6F894DEBF0FBE30
:1004F000CDBFDF91CF910895CF93DF93CDB7DEB716
:1005000088E290E02FEEFC012083000086E290E07C
:10051000FC01808160E0BEDE882311F481E3A9C084
:1005200086E290E0FC01808161E0B4DE882311F472
:1005300082E39FC086E290E0FC01808162E0AADE57
:10054000882311F483E395C086E290E0FC0180816A
:1005500063E0A0DE882311F481E48BC088E290E0A0
:100560002FEDFC012083000086E290E0FC018081F9
:1005700060E090DE882311F484E37BC086E290E0A3
:10058000FC01808161E086DE882311F485E371C07F
:1005900086E290E0FC01808162E07CDE882311F439
:1005A00086E367C086E290E0FC01808163E072DE52
:1005B000882311F482E45DC088E290E02FEBFC0117
:1005C0002083000086E290E0FC01808160E062DE32
:1005D000882311F487E34DC086E290E0FC0180811E
:1005E00061E058DE882311F488E343C086E290E09E
:1005F000FC01808162E04EDE882311F489E339C07A
:1006000086E290E0FC01808163E044DE882311F4FF
:1006100083E42FC088E290E02FE7FC0120830000F4
:1006200086E290E0FC01808160E034DE882311F4F2
:100630008AE21FC086E290E0FC01808161E02ADE50
:10064000882311F480E315C086E290E0FC018081EC
:1006500062E020DE882311F483E20BC086E290E0A2
:10066000FC01808163E016DE882311F484E401C07C
:1006700080E0DF91CF910895CF93DF9300D0CDB785
:10068000DEB78A838A81898323C08981882F90E09D
:100690002981222F30E021503109285F3E4FF90196
:1006A0002081885F9E4FFC0120838981882F90E004
:1006B0002981222F30E021503109275E3E4FF90178
:1006C0002081875E9E4FFC01208389818150898330
:1006D00089818823D1F60F900F90DF91CF910895F3
:1006E000CF93DF9300D0CDB7DEB78A83198211C0D4
:1006F0008981882F90E0885F9E4FFC01108289815C
:10070000882F90E0875E9E4FFC01108289818F5F69
:10071000898399818A81981758F30F900F90DF9100
:10072000CF910895CF93DF93CDB7DEB72A970FB659
:10073000F894DEBF0FBECDBF9A83898389819A81E9
:100740008130910551F082309105C1F0892B11F56E
:1007500081E090E09A83898320C080915F0181309D
:1007600019F41A82198209C080915E01813029F43E
:1007700082E090E09A83898310C00FC080915F016E
:10078000813019F41A82198208C081E090E09A83BE
:10079000898303C01A821982000089819A8181307D
:1007A000910509F466C08230910561F0892B09F04A
:1007B00061C081E080932D0182E080932A0181E174
:1007C0008FDF58C080912D0157DF62D420912A011C
:1007D000222F30E0B901CCD3019721F483E280933A
:1007E000080110C055D420912A01222F30E0B90110
:1007F000BFD3019721F48AE28093080103C080E20D
:100800008093080145D420912A01222F30E0B901BC
:10081000AFD3019721F483E28093190110C038D43B
:1008200020912A01222F30E0B901A2D3019721F4AF
:100830008AE28093190103C080E2809319018091BC
:100840001801882321F480912901882361F0809187
:100850002D01803140F0109218011092290180E1A1
:1008600080932D0107C080912D018F5F80932D0112
:1008700001C0000089819A812A960FB6F894DEBFE4
:100880000FBECDBFDF91CF910895CF93DF9300D0FE
:10089000CDB7DEB79A83898389819A8182309105A9
:1008A000E9F0833091052CF4009749F0019761F04D
:1008B00048C08330910551F10497D9F142C081E0DD
:1008C00090E09A83898340C080915D01813329F44F
:1008D00082E090E09A83898337C036C080915F01BF
:1008E000813029F483E090E09A8389830EC080915F
:1008F0006001882329F482E090E09A83898305C00F
:1009000083E090E09A8389831FC01EC080918F018D
:10091000853050F483E090E09A83898380918F0141
:100920008F5F80938F0110C084E090E09A83898369
:100930000BC080915D01813319F41A82198204C0C1
:1009400003C01A821982000089819A818230910540
:1009500009F1833091052CF4009751F00197A1F033
:1009600050C08330910549F1049709F43FC049C054
:100970001092600180E180932B0110927701109218
:100980005F0110925D013DC0A0DB66E371E081E094
:1009900016DC37C081E080935E0197DB68E071E090
:1009A00081E00DDC69E171E081E109DC80912B01DE
:1009B0002EDC80912C01D5DB24C010925E0185DBFA
:1009C00068E071E081E0FBDB69E171E081E1F7DB88
:1009D00080912B011CDC80918F018170882319F498
:1009E00088E5BFDB0EC08BEDBCDB0BC010928F0126
:1009F0006CDB67E471E081E0E2DB81E080935F0122
:100A0000000089819A810F900F90DF91CF91089516
:100A1000CF93DF9300D0CDB7DEB79A8389836CDDA7
:100A200080935D0189819A818130910589F08230BE
:100A300091051CF4892B39F024C08230910591F086
:100A40000397A9F01EC081E090E09A8389831CC0BF
:100A500080915D01882329F082E090E09A83898368
:100A600013C012C083E090E09A8389830DC0809107
:100A70005D01882329F481E090E09A83898304C092
:100A800003C01A821982000089819A818130910500
:100A9000A9F1823091051CF4892B91F134C0823088
:100AA000910519F0039771F12EC080912B018031CF
:100AB00039F480915D01833419F480E280932B0135
:100AC00080912B01803239F480915D01823419F4D8
:100AD00080E180932B0180915D01813349F4809105
:100AE0008D01863028F081E080935F0110928D01A6
:100AF00080918D018F5F80938D0105C0000003C040
:100B0000000001C0000089819A810F900F90DF9151
:100B1000CF910895CF93DF9300D0CDB7DEB79A83FE
:100B2000898389819A81009719F0019731F00AC071
:100B300081E090E09A83898308C081E090E09A8305
:100B4000898303C01A821982000089819A810097E3
:100B500019F0019721F024C01092600121C080910A
:100B60002B01803161F480911701803241F0809136
:100B70001701882321F081E08093600110C08091EB
:100B80002B01803261F480912801803241F0809104
:100B90002801882321F081E08093600100C00000DB
:100BA00089819A810F900F90DF91CF9108950F93D3
:100BB0001F93CF93DF93CDB7DEB7EC970FB6F894C2
:100BC000DEBF0FBECDBF84E290E02FEFFC0120839B
:100BD00085E290E0FC01108287E290E020EFFC01CA
:100BE000208388E290E02FE0FC0120838AE290E0FD
:100BF0002FEFFC0120838BE290E0FC01108284EF58
:100C000091E0A0E0B0E08B839C83AD83BE8384EF52
:100C100091E0A0E0B0E08F839887A987BA878AE047
:100C200090E0A0E0B0E08B879C87AD87BE8784E62C
:100C300090E0A0E0B0E08F87988BA98BBA8B2F81D2
:100C4000388549855A858B819C81AD81BE81BC01E7
:100C5000CD0106DCDC01CB018B8B9C8BAD8BBE8B7D
:100C60002B853C854D855E858B899C89AD89BE89A8
:100C7000BC01CD01F5DBDC01CB018B8B9C8BAD8BFB
:100C8000BE8B2F85388949895A898B899C89AD8982
:100C9000BE89BC01CD01E4DBDC01CB018B8B9C8BDD
:100CA000AD8BBE8B8B899C89AD89BE898F8B988FCC
:100CB000A98FBA8F8B819C81AD81BE812F89388DA0
:100CC000498D5A8DBC01CD0166D1DA01C9018B8FE6
:100CD0009C8FAD8FBE8F8F819885A985BA852F890E
:100CE000388D498D5A8DBC01CD0155D1DA01C9012C
:100CF0008F8F98A3A9A3BAA38B859C85AD85BE854C
:100D00002F89388D498D5A8DBC01CD0144D1DA012E
:100D1000C9018BA39CA3ADA3BEA38F859889A98984
:100D2000BA892F89388D498D5A8DBC01CD0133D1B7
:100D3000DA01C9018FA398A7A9A7BAA784E090E018
:100D40009CA78BA7109261018B8D9C8DAD8DBE8D64
:100D50008093620190936301A0936401B093650155
:100D60008B8D9C8DAD8DBE8D8093660190936701B8
:100D7000A0936801B093690182E993E090936B01BD
:100D800080936A0110926C018F8D98A1A9A1BAA1DC
:100D900080936D0190936E01A0936F01B0937001E9
:100DA0008F8D98A1A9A1BAA180937101909372012E
:100DB000A0937301B093740185E494E0909376015D
:100DC00080937501109277018BA19CA1ADA1BEA16A
:100DD0008093780190937901A0937A01B0937B017D
:100DE0008BA19CA1ADA1BEA180937C0190937D01BC
:100DF000A0937E01B0937F0188E095E090938101FC
:100E000080938001109282018FA198A5A9A5BAA50F
:100E10008093830190938401A0938501B093860110
:100E20008FA198A5A9A5BAA5809387019093880161
:100E3000A0938901B0938A018AE895E090938C0190
:100E400080938B018F89988DA98DBA8DBC01CD01BE
:100E50003ADA66DA43D91A8219827AC089819A818C
:100E6000880F991F825D9E4FFC0180819181FC015A
:100E7000258136814781508589819A81880F991F04
:100E8000825D9E4FFC0180819181FC018181928174
:100E9000A381B481281739074A075B07A9F589811F
:100EA0009A81880F991F825D9E4FFC0100811181FC
:100EB00089819A81880F991F825D9E4FFC018081F4
:100EC0009181FC012185328589819A81880F991F42
:100ED000825D9E4FFC0180819181FC018081082E02
:100EE000000C990BF9010995F801808389819A8199
:100EF000880F991F825D9E4FFC0180819181FC01CA
:100F0000158216821782108689819A81880F991F0F
:100F1000825D9E4FFC012081318189819A81880FF9
:100F2000991F825D9E4FFC0180819181FC0185812A
:100F30009681A781B0850196A11DB11DF901858318
:100F40009683A783B08789819A8101969A83898342
:100F500029813A818BA59CA52817390708F47ECFF3
:100F60000000809158018823E1F31092580173CF5B
:100F700097FB072E16F4009406D077FD08D02DD0ED
:100F800007FC05D03EF4909581959F4F089570958C
:100F900061957F4F0895A1E21A2EAA1BBB1BFD018C
:100FA0000DC0AA1FBB1FEE1FFF1FA217B307E40748
:100FB000F50720F0A21BB30BE40BF50B661F771FA0
:100FC000881F991F1A9469F7609570958095909580
:100FD0009B01AC01BD01CF010895AA1BBB1B51E1D0
:100FE00007C0AA1FBB1FA617B70710F0A61BB70B99
:100FF000881F991F5A95A9F780959095BC01CD013E
:1010000008958F929F92AF92BF92CF92DF92EF920C
:10101000FF92CF93DF93EC01688179818A819B8174
:10102000611571058105910521F464E279ED8BE587
:1010300097E02DE133EF41E050E038D049015A010B
:101040009B01AC01A7EAB1E44DD06B017C01ACEE91
:10105000B4EFA501940152D0DC01CB018C0D9D1D94
:10106000AE1DBF1DB7FF03C00197A109B04888831B
:101070009983AA83BB839F77DF91CF91FF90EF90F5
:10108000DF90CF90BF90AF909F908F900895B9CF91
:1010900080E091E0B6CFA0E0B0E0809300019093B3
:1010A0000101A0930201B09303010895052E97FB5F
:1010B00016F400940FD057FD05D06DDF07FC02D069
:1010C00046F408C050954095309521953F4F4F4FBD
:1010D0005F4F089590958095709561957F4F8F4FE4
:1010E0009F4F08950FD0A59F900DB49F900DA49F82
:1010F000800D911D11240895B7FFF4CFF3DF821BFB
:10110000930B0895A29FB001B39FC001A39F700DE0
:10111000811D1124911DB29F700D811D1124911DFF
:061120000895F894FFCFD2
:101126000100000001000000200000000000000097
:101136000000000000000000002000000000000089
:10114600000000000000000000001410DB01610137
:101156006C01770182012020204C43445F524143B9
:101166004552212020200020594F5520415245202C
:08117600444541443A282000E1
:00000001FF
