S01D0000787A686F753031365F46696E616C50726F6A6563742E7372656312
S113000045C0000061C000005FC000005DC000008A
S11300105BC0000059C0000057C0000055C000007C
S113002053C0000051C000004FC000004DC000008C
S11300304BC00000B5C1000047C0000045C000002F
S113004043C0000041C000003FC000003DC00000AC
S11300503BC0000039C0000037C0000035C00000BC
S113006033C0000031C000002FC000002DC00000CC
S11300702BC0000029C0000027C0000025C00000DC
S113008023C0000021C000001FC0000011241FBEB7
S1130090CFEFD0E4DEBFCDBF11E0A0E0B1E0E8E8EF
S11300A0F6E100E00BBF02C007900D92A436B10741
S11300B0D9F721E0A4E6B1E001C01D92A53CB20746
S11300C0E1F732D70C94420B9BCFCF93DF93CDB79C
S11300D0DEB781E018D0DF91CF910895CF93DF93FD
S11300E0CDB7DEB784E690E0A6D088E30CD086E0F6
S11300F00AD08FE008D081E006D08AE090E09BD05F
S1130100DF91CF910895CF93DF931F92CDB7DEB7E0
S113011089838BE290E02BE230E0F90120812F7B90
S1130120FC01208385E290E02981FC0120838BE29D
S113013090E02BE230E0F90120812068FC0120836B
S113014000008BE290E02BE230E0F90120812F7770
S1130150FC01208382E090E06ED00F90DF91CF917C
S11301600895CF93DF931F92CDB7DEB789838BE2D7
S113017090E02BE230E0F90120812064FC0120832F
S113018085E290E02981FC0120838BE290E02BE260
S113019030E0F90120812068FC01208300008BE21B
S11301A090E02BE230E0F90120812F77FC012083DD
S11301B081E090E040D00F90DF91CF910895CF93EC
S11301C0DF9300D000D0CDB7DEB78A837C836B8306
S11301D08A8189830FC0898191E0980F998317D010
S11301E08B819C819C012F5F3F4F3C832B83FC01BF
S11301F08081B7DF8B819C81FC018081882359F742
S11302000F900F900F900F90DF91CF910895CF939F
S1130210DF931F92CDB7DEB789838981813120F4C2
S11302208981815870DF03C0898181556CDF0F900B
S1130230DF91CF910895CF93DF9300D000D000D009
S1130240CDB7DEB79E838D831A82198213C01C82B8
S11302501B8206C000008B819C8101969C838B834A
S11302608B819C8187309340ACF389819A8101967C
S11302709A83898329813A818D819E812817390740
S113028034F326960FB6F894DEBF0FBECDBFDF91D0
S1130290CF910895CF93DF9300D0CDB7DEB7898394
S11302A06A838A81282F30E081E090E002C0880FC1
S11302B0991F2A95E2F7982F898189230F900F902F
S11302C0DF91CF910895CF93DF9300D000D0CDB7C5
S11302D0DEB769837A838B839C8389819A81AB811E
S11302E0BC818093040190930501A0930601B0930F
S11302F007018091040190910501A0910601B0913C
S113030007018093650190936601A0936701B09300
S113031068010F900F900F900F90DF91CF91089587
S1130320CF93DF93CDB7DEB781E890E02BE0FC01FB
S1130330208388E890E02DE730E0FC0131832083BE
S11303408FE690E022E0FC01208384E890E0FC0149
S1130350118210828091040190910501A0910601FF
S1130360B09107018093650190936601A0936701A2
S1130370B09368018FE590E02FE530E0F90120812A
S11303802068FC012083DF91CF910895CF93DF9300
S1130390CDB7DEB781E080936401DF91CF910895FA
S11303A01F920F9200905F000F92112400905B0047
S11303B00F922F933F934F935F936F937F938F93FA
S11303C09F93AF93BF93EF93FF93CF93DF93CDB7F7
S11303D0DEB78091650190916601A0916701B091AB
S11303E068010197A109B1098093650190936601A1
S11303F0A0936701B09368018091650190916601B3
S1130400A0916701B0916801892B8A2B8B2B89F409
S1130410BDDF8091040190910501A0910601B09186
S113042007018093650190936601A0936701B093DF
S11304306801DF91CF91FF91EF91BF91AF919F91AF
S11304408F917F916F915F914F913F912F910F9079
S113045000925B000F9000925F000F901F90189520
S1130460CF93DF93CDB7DEB760970FB6F894DEBFB6
S11304700FBECDBF6D837E838F83988729873A878C
S11304804B875C878D819E81AF81B88529853A85AC
S11304904B855C85BC01CD010E947C0ADC01CB014B
S11304A089839A83AB83BC8389819A81AB81BC8124
S11304B0892B8A2B8B2B29F489859A85AB85BC855E
S11304C011C089859A85AB85BC858D839E83AF8356
S11304D0B88789819A81AB81BC8189879A87AB87E8
S11304E0BC87D0CFBC01CD0160960FB6F894DEBFB7
S11304F00FBECDBFDF91CF910895CF93DF93CDB7DA
S1130500DEB788E290E02FEEFC012083000086E253
S113051090E0FC01808160E0BDDE882311F481E37A
S1130520A9C086E290E0FC01808161E0B3DE88230B
S113053011F482E39FC086E290E0FC01808162E0D6
S1130540A9DE882311F483E395C086E290E0FC01E0
S1130550808163E09FDE882311F481E48BC088E20C
S113056090E02FEDFC012083000086E290E0FC0186
S1130570808160E08FDE882311F484E37BC086E20F
S113058090E0FC01808161E085DE882311F485E33D
S113059071C086E290E0FC01808162E07BDE88230A
S11305A011F486E367C086E290E0FC01808163E099
S11305B071DE882311F482E45DC088E290E02FEBC1
S11305C0FC012083000086E290E0FC01808160E071
S11305D061DE882311F487E34DC086E290E0FC01DC
S11305E0808161E057DE882311F488E343C086E20A
S11305F090E0FC01808162E04DDE882311F489E300
S113060039C086E290E0FC01808163E043DE882308
S113061011F483E42FC088E290E02FE7FC012083EB
S1130620000086E290E0FC01808160E033DE8823F4
S113063011F48AE21FC086E290E0FC01808161E04F
S113064029DE882311F480E315C086E290E0FC01E2
S1130650808162E01FDE882311F483E20BC086E20E
S113066090E0FC01808163E015DE882311F484E4CA
S113067001C080E0DF91CF910895CF93DF9300D044
S1130680CDB7DEB78A838A81898323C08981882F85
S113069090E02981222F30E021503109285F3E4F1C
S11306A0F9012081885F9E4FFC0120838981882F76
S11306B090E02981222F30E021503109275E3E4FFE
S11306C0F9012081875E9E4FFC012083898181503E
S11306D0898389818823D1F60F900F90DF91CF9180
S11306E00895CF93DF9300D0CDB7DEB78A83198204
S11306F013C08981882F90E0885F9E4F20E2FC011F
S113070020838981882F90E0875E9E4F20E2FC0140
S1130710208389818F5F898399818A81981748F31F
S11307200F900F90DF91CF910895CF93DF93CDB7C2
S1130730DEB762970FB6F894DEBF0FBECDBF9A83C3
S1130740898389819A818130910551F082309105A4
S1130750C1F0892B11F581E090E09A83898320C050
S113076080916C01813019F41A82198209C0809138
S11307706B01813029F482E090E09A83898310C070
S11307800FC080916C01813019F41A82198208C05B
S113079081E090E09A83898303C01A821982000061
S11307A089819A818130910509F4A2C08230910532
S11307B061F0892B09F09DC081E08093310184E1CF
S11307C080932A0181E18DDF94C08091310155DF4E
S11307D010D720912A01222F30E0B9017AD601974F
S11307E021F483E2809308012EC003D720912A01CB
S11307F0222F30E0B9016DD6019721F48AE280936B
S1130800080121C0F6D620912B01222F30E0B90136
S113081060D6019741F480912E01813021F48DE25C
S11308208093080110C0E5D620912C01222F30E0DE
S1130830B9014FD6019721F48BE28093080103C0DC
S113084080E280930801D5D620912A01222F30E03E
S1130850B9013FD6019721F483E2809319012EC098
S1130860C8D620912A01222F30E0B90132D601974F
S113087021F48AE28093190121C0BBD620912B0177
S1130880222F30E0B90125D6019741F480912E0141
S1130890813121F48DE28093190110C0AAD62091F0
S11308A02C01222F30E0B90114D6019721F48DEFE9
S11308B08093190103C080E280931901809118018B
S11308C0882321F480912901882361F080913101EA
S11308D0803140F0109218011092290180E1809338
S11308E0310107C0809131018F5F8093310101C0D4
S11308F0000089819A8162960FB6F894DEBF0FBE1C
S1130900CDBFDF91CF910895CF93DF9300D0CDB7C2
S1130910DEB79A83898389819A8182309105E9F0CF
S1130920833091052CF4009749F0019761F048C099
S11309308330910551F10497D9F142C081E090E0F0
S11309409A83898340C080916901813329F482E0CC
S113095090E09A83898337C036C080916C018130DE
S113096029F483E090E09A8389830EC080916D011D
S1130970882329F482E090E09A83898305C083E088
S113098090E09A8389831FC01EC08091BF01853087
S113099050F483E090E09A8389838091BF018F5F54
S11309A08093BF0110C084E090E09A8389830BC0D8
S11309B080916901813319F41A82198204C003C039
S11309C01A821982000089819A818230910529F165
S11309D0833091052CF4009759F00197C1F063C05E
S11309E08330910509F43BC0049709F451C05BC0FE
S11309F010926D0180E180932D0181E080932E019E
S1130A001092850110926C01109269014CC05DDB5B
S1130A1061E471E081E0D3DB46C081E080936B0147
S1130A2054DB68E071E081E0CADB69E171E081E1F7
S1130A30C6DB80916E01813029F480913201E7DBBD
S1130A408DE28FDB80912E01E2DB8091300189DB26
S1130A5080912D01DCDB80912F0183DB24C0109277
S1130A606B0133DB68E071E081E0A9DB69E171E0EF
S1130A7081E1A5DB80912D01CADB8091BF018170EA
S1130A80882319F488E56DDB0EC08BED6ADB0BC09F
S1130A901092BF011ADB62E571E081E090DB81E036
S1130AA080936C01000089819A810F900F90DF91EF
S1130AB0CF910895CF93DF9300D0CDB7DEB79A835B
S1130AC089831BDD8093690189819A818130910535
S1130AD089F0823091051CF4892B39F024C08230CE
S1130AE0910591F00397A9F01EC081E090E09A83EC
S1130AF089831CC080916901882329F082E090E0F9
S1130B009A83898313C012C083E090E09A83898317
S1130B100DC080916901882329F481E090E09A83D3
S1130B20898304C003C01A821982000089819A81D2
S1130B3081309105A9F1823091051CF4892B91F142
S1130B4034C08230910519F0039771F12EC0809161
S1130B502D01803139F480916901833419F480E2E4
S1130B6080932D0180912D01803239F480916901A7
S1130B70823419F480E180932D01809169018133DD
S1130B8049F48091BC01863028F081E080936C01A7
S1130B901092BC018091BC018F5F8093BC0105C0A1
S1130BA0000003C0000001C0000089819A810F90F9
S1130BB00F90DF91CF910895CF93DF9300D0CDB7FD
S1130BC0DEB79A83898389819A81009719F0019706
S1130BD031F00AC081E090E09A83898308C081E003
S1130BE090E09A83898303C01A8219820000898164
S1130BF09A81009719F0019721F0A2C010926D011B
S1130C009FC080916E01813009F04DC08091320106
S1130C10803118F580913201882F90E00197885F28
S1130C209E4FFC0180818A3259F080913201882FD5
S1130C3090E00197885F9E4FFC018081833269F4C4
S1130C4080913201882F90E00197885F9E4F20E2C7
S1130C50FC01208310926E0126C080913201803203
S1130C6010F580913201882F90E04197875E9E4F66
S1130C70FC0180818A3259F080913201882F90E002
S1130C804197875E9E4FFC018081833261F480919D
S1130C903201882F90E04197875E9E4F20E2FC014D
S1130CA0208310926E0180912D01803119F580917D
S1130CB017018032F9F0809117018823D9F08091CF
S1130CC06A01882329F080916A01815080936A0126
S1130CD080916A01882319F481E080936D018091E9
S1130CE017018B3231F410926D0180E180936A0117
S1130CF026C025C080912D01803209F580912801FC
S1130D008032E9F0809128018823C9F080916A013A
S1130D10882329F080916A01815080936A0180912F
S1130D206A01882319F481E080936D018091280180
S1130D308D3F29F410926D0181E1D3DC00C00000E5
S1130D4089819A810F900F90DF91CF910895CF936D
S1130D50DF9300D0CDB7DEB79A83898389819A81E6
S1130D60009719F0019759F012C080916B018130FE
S1130D7029F481E090E09A8389830CC00BC08091B0
S1130D806B01882319F41A82198204C003C01A82E1
S1130D901982000089819A81009719F0019729F03E
S1130DA00FC084E180932A010BC080912A01833013
S1130DB030F080912A01815080932A0100C0000004
S1130DC089819A810F900F90DF91CF910895CF93ED
S1130DD0DF9300D0CDB7DEB79A83898389819A8166
S1130DE08130910589F0823091051CF4892B39F00A
S1130DF024C08230910591F00397A9F01EC081E0D0
S1130E0090E09A8389831CC080916901843429F419
S1130E1082E090E09A83898313C012C083E090E05B
S1130E209A8389830DC080916901843429F081E01B
S1130E3090E09A83898304C003C01A821982000057
S1130E4089819A818130910561F0823091051CF489
S1130E50892BD9F01DC08230910571F00397B9F048
S1130E6017C080913201882331F080913201815082
S1130E70809332010DC00CC081E080936E0180919B
S1130E802D0181508093320103C0000001C0000095
S1130E9089819A810F900F90DF91CF910895CF931C
S1130EA0DF9300D0CDB7DEB79A83898389819A8195
S1130EB08130910551F08230910599F0892BB1F47C
S1130EC081E090E09A83898314C090912D018091F0
S1130ED02E01981729F082E090E09A83898309C053
S1130EE008C081E090E09A83898303C01A82198242
S1130EF0000089819A818130910561F082309105E9
S1130F0019F0892B49F009C080912D018F508093ED
S1130F102E0103C0000001C0000089819A810F9056
S1130F200F90DF91CF9108950F931F93CF93DF9389
S1130F30CDB7DEB7C056D1090FB6F894DEBF0FBEE9
S1130F40CDBF84E290E02FEFFC01208385E290E0A6
S1130F50FC01108287E290E020EFFC01208388E20C
S1130F6090E02FE0FC0120838AE290E02FEFFC0167
S1130F7020838BE290E0FC0110828AEF90E0A0E0F5
S1130F80B0E08B839C83AD83BE8384EF91E0A0E0CB
S1130F90B0E08F839887A987BA878AE090E0A0E0C1
S1130FA0B0E08B879C87AD87BE8784E690E0A0E0A5
S1130FB0B0E08F87988BA98BBA8B80ED97E0A0E087
S1130FC0B0E08B8B9C8BAD8BBE8B84E690E0A0E075
S1130FD0B0E08F8B988FA98FBA8F84E690E0A0E061
S1130FE0B0E08B8F9C8FAD8FBE8F2F813885498564
S1130FF05A858B819C81AD81BE81BC01CD0130DAE3
S1131000DC01CB018F8F98A3A9A3BAA32B853C85C0
S11310104D855E858F8D98A1A9A1BAA1BC01CD0192
S11310201FDADC01CB018F8F98A3A9A3BAA32F8564
S1131030388949895A898F8D98A1A9A1BAA1BC017F
S1131040CD010EDADC01CB018F8F98A3A9A3BAA33B
S11310502B893C894D895E898F8D98A1A9A1BAA15C
S1131060BC01CD01FDD9DC01CB018F8F98A3A9A3CD
S1131070BAA32F89388D498D5A8D8F8D98A1A9A136
S1131080BAA1BC01CD01ECD9DC01CB018F8F98A3AF
S1131090A9A3BAA32B8D3C8D4D8D5E8D8F8D98A108
S11310A0A9A1BAA1BC01CD01DBD9DC01CB018F8F91
S11310B098A3A9A3BAA38F8D98A1A9A1BAA18BA320
S11310C09CA3ADA3BEA38B819C81AD81BE812BA1CA
S11310D03CA14DA15EA1BC01CD010ED2DA01C90132
S11310E08FA398A7A9A7BAA78F819885A985BA8540
S11310F02BA13CA14DA15EA1BC01CD01FDD1DA0122
S1131100C9018BA79CA7ADA7BEA78B859C85AD8580
S1131110BE852BA13CA14DA15EA1BC01CD01ECD1AA
S1131120DA01C9018FA798ABA9ABBAAB8F859889AF
S1131130A989BA892BA13CA14DA15EA1BC01CD0115
S1131140DBD1DA01C9018BAB9CABADABBEAB8B89F8
S11311509C89AD89BE892BA13CA14DA15EA1BC0196
S1131160CD01CAD1DA01C9018FAB98AFA9AFBAAF2B
S11311708F89988DA98DBA8D2BA13CA14DA15EA11B
S1131180BC01CD01B9D1DA01C9018BAF9CAFADAFC0
S1131190BEAF8E01015C1F4F8B8D9C8DAD8DBE8DBE
S11311A02BA13CA14DA15EA1BC01CD01A5D1DA01C9
S11311B0C901F80180839183A283B383CE018D5B3F
S11311C09F4F27E030E0FC013183208310926F01B0
S11311D08FA198A5A9A5BAA58093700190937101D8
S11311E0A0937201B09373018FA198A5A9A5BAA584
S11311F08093740190937501A0937601B093770165
S113120085E993E0909379018093780110927A01B3
S11312108BA59CA5ADA5BEA580937B0190937C0175
S1131220A0937D01B0937E018BA59CA5ADA5BEA521
S113123080937F0190938001A0938101B0938201F8
S113124084E894E090938401809383011092850153
S11312508FA598A9A9A9BAA980938601909387011B
S1131260A0938801B09389018FA598A9A9A9BAA9C7
S113127080938A0190938B01A0938C01B0938D018C
S11312808AE595E090938F0180938E0110929001EE
S11312908BA99CA9ADA9BEA98093910190939201B9
S11312A0A0939301B09394018BA99CA9ADA9BEA965
S11312B08093950190939601A0939701B093980120
S11312C08CED95E090939A018093990110929B0183
S11312D08FA998ADA9ADBAAD80939C0190939D015F
S11312E0A0939E01B0939F018FA998ADA9ADBAAD0B
S11312F08093A0019093A101A093A201B093A301B4
S113130087EA96E09093A5018093A4011092A60128
S11313108BAD9CADADADBEAD8093A7019093A801FC
S1131320A093A901B093AA018BAD9CADADADBEADA8
S11313308093AB019093AC01A093AD01B093AE0147
S113134087EE96E09093B0018093AF011092B101C3
S1131350CE01CF96FC0180819181A281B3818093DB
S1131360B2019093B301A093B401B093B501CE013F
S1131370CF96FC0180819181A281B3818093B601D3
S11313809093B701A093B801B093B9018FE497E0AB
S11313909093BB018093BA018BA19CA1ADA1BEA186
S11313A0BC01CD010E9463010E9490010E946E0065
S11313B01A8219827AC089819A81880F991F8D5C5B
S11313C09E4FFC0180819181FC01258136814781FA
S11313D0508589819A81880F991F8D5C9E4FFC01ED
S11313E080819181FC0181819281A381B48128173C
S11313F039074A075B07A9F589819A81880F991FE4
S11314008D5C9E4FFC010081118189819A81880F36
S1131410991F8D5C9E4FFC0180819181FC01218587
S1131420328589819A81880F991F8D5C9E4FFC01BA
S113143080819181FC018081082E000C990BF901B7
S11314400995F801808389819A81880F991F8D5CA1
S11314509E4FFC0180819181FC01158216821782C6
S1131460108689819A81880F991F8D5C9E4FFC019B
S11314702081318189819A81880F991F8D5C9E4FCB
S1131480FC0180819181FC0185819681A781B085D1
S11314900196A11DB11DF90185839683A783B087A9
S11314A089819A8101969A838983CE018D5B9F4FAE
S11314B029813A81FC01808191812817390708F438
S11314C07ACF0000809164018823E1F310926401D3
S11314D06FCF97FB072E16F4009406D077FD08D043
S11314E02DD007FC05D03EF4909581959F4F08952B
S11314F0709561957F4F0895A1E21A2EAA1BBB1B1C
S1131500FD010DC0AA1FBB1FEE1FFF1FA217B307CB
S1131510E407F50720F0A21BB30BE40BF50B661FE1
S1131520771F881F991F1A9469F7609570958095A5
S113153090959B01AC01BD01CF010895AA1BBB1B73
S113154051E107C0AA1FBB1FA617B70710F0A61BBF
S1131550B70B881F991F5A95A9F780959095BC01E0
S1131560CD0108958F929F92AF92BF92CF92DF9256
S1131570EF92FF92CF93DF93EC01688179818A81A6
S11315809B81611571058105910521F464E279ED72
S11315908BE597E02DE133EF41E050E038D049018D
S11315A05A019B01AC01A7EAB1E44DD06B017C0167
S11315B0ACEEB4EFA501940152D0DC01CB018C0D4B
S11315C09D1DAE1DBF1DB7FF03C00197A109B04803
S11315D088839983AA83BB839F77DF91CF91FF9000
S11315E0EF90DF90CF90BF90AF909F908F90089531
S11315F0B9CF80E091E0B6CFA0E0B0E080930001E5
S113160090930101A0930201B09303010895052E64
S113161097FB16F400940FD057FD05D06DDF07FC3F
S113162002D046F408C050954095309521953F4F1F
S11316304F4F5F4F089590958095709561957F4FBA
S11316408F4F9F4F08950FD0A59F900DB49F900D7D
S1131650A49F800D911D11240895B7FFF4CFF3DFEB
S1131660821B930B0895A29FB001B39FC001A39F57
S1131670700D811D1124911DB29F700D811D1124C7
S10B1680911D0895F894FFCFB9
S1131688010000000100000020202020202020204C
S1131698202020202020202000202020202020205E
S11316A820202020202020202000140A0A1001DBFA
S11316B87E01106F017A01850190019B01A601B199
S11316C8012020204C43445F5241434552212020AD
S11316D8200020594F552041524520444541443A61
S10716E828200000B2
S9030000FC
