:1000000045C0000061C000005FC000005DC000008E
:100010005BC0000059C0000057C0000055C0000080
:1000200053C0000051C000004FC000004DC0000090
:100030004BC00000B5C1000047C0000045C0000033
:1000400043C0000041C000003FC000003DC00000B0
:100050003BC0000039C0000037C0000035C00000C0
:1000600033C0000031C000002FC000002DC00000D0
:100070002BC0000029C0000027C0000025C00000E0
:1000800023C0000021C000001FC0000011241FBEBB
:10009000CFEFD0E4DEBFCDBF11E0A0E0B1E0E8E5F6
:1000A000F4E100E00BBF02C007900D92AE35B1073E
:1000B000D9F721E0AEE5B1E001C01D92A33CB20743
:1000C000E1F778D60C942A0A9BCFCF93DF93CDB774
:1000D000DEB781E018D0DF91CF910895CF93DF9301
:1000E000CDB7DEB784E690E0A6D088E30CD086E0FA
:1000F0000AD08FE008D081E006D08AE090E09BD063
:10010000DF91CF910895CF93DF931F92CDB7DEB7E4
:1001100089838BE290E02BE230E0F90120812F7B94
:10012000FC01208385E290E02981FC0120838BE2A1
:1001300090E02BE230E0F90120812068FC0120836F
:1001400000008BE290E02BE230E0F90120812F7774
:10015000FC01208382E090E06ED00F90DF91CF9180
:100160000895CF93DF931F92CDB7DEB789838BE2DB
:1001700090E02BE230E0F90120812064FC01208333
:1001800085E290E02981FC0120838BE290E02BE264
:1001900030E0F90120812068FC01208300008BE21F
:1001A00090E02BE230E0F90120812F77FC012083E1
:1001B00081E090E040D00F90DF91CF910895CF93F0
:1001C000DF9300D000D0CDB7DEB78A837C836B830A
:1001D0008A8189830FC0898191E0980F998317D014
:1001E0008B819C819C012F5F3F4F3C832B83FC01C3
:1001F0008081B7DF8B819C81FC018081882359F746
:100200000F900F900F900F90DF91CF910895CF93A3
:10021000DF931F92CDB7DEB789838981813120F4C6
:100220008981815870DF03C0898181556CDF0F900F
:10023000DF91CF910895CF93DF9300D000D000D00D
:10024000CDB7DEB79E838D831A82198213C01C82BC
:100250001B8206C000008B819C8101969C838B834E
:100260008B819C8187309340ACF389819A81019680
:100270009A83898329813A818D819E812817390744
:1002800034F326960FB6F894DEBF0FBECDBFDF91D4
:10029000CF910895CF93DF9300D0CDB7DEB7898398
:1002A0006A838A81282F30E081E090E002C0880FC5
:1002B000991F2A95E2F7982F898189230F900F9033
:1002C000DF91CF910895CF93DF9300D000D0CDB7C9
:1002D000DEB769837A838B839C8389819A81AB8122
:1002E000BC818093040190930501A0930601B09313
:1002F00007018091040190910501A0910601B09140
:10030000070180935F0190936001A0936101B09316
:1003100062010F900F900F900F90DF91CF91089591
:10032000CF93DF93CDB7DEB781E890E02BE0FC01FF
:10033000208388E890E02DE730E0FC0131832083C2
:100340008FE690E022E0FC01208384E890E0FC014D
:10035000118210828091040190910501A091060103
:10036000B091070180935F0190936001A0936101B8
:10037000B09362018FE590E02FE530E0F901208134
:100380002068FC012083DF91CF910895CF93DF9304
:10039000CDB7DEB781E080935E01DF91CF91089504
:1003A0001F920F9200905F000F92112400905B004B
:1003B0000F922F933F934F935F936F937F938F93FE
:1003C0009F93AF93BF93EF93FF93CF93DF93CDB7FB
:1003D000DEB780915F0190916001A0916101B091C1
:1003E00062010197A109B10980935F0190936001B7
:1003F000A0936101B093620180915F0190916001CF
:10040000A0916101B0916201892B8A2B8B2B89F419
:10041000BDDF8091040190910501A0910601B0918A
:10042000070180935F0190936001A0936101B093F5
:100430006201DF91CF91FF91EF91BF91AF919F91B9
:100440008F917F916F915F914F913F912F910F907D
:1004500000925B000F9000925F000F901F90189524
:10046000CF93DF93CDB7DEB760970FB6F894DEBFBA
:100470000FBECDBF6D837E838F83988729873A8790
:100480004B875C878D819E81AF81B88529853A85B0
:100490004B855C85BC01CD0117D7DC01CB0189837D
:1004A0009A83AB83BC8389819A81AB81BC81892B80
:1004B0008A2B8B2B29F489859A85AB85BC8511C045
:1004C00089859A85AB85BC858D839E83AF83B887EC
:1004D00089819A81AB81BC8189879A87AB87BC87E8
:1004E000D1CFBC01CD0160960FB6F894DEBF0FBE30
:1004F000CDBFDF91CF910895CF93DF93CDB7DEB716
:1005000088E290E02FEEFC012083000086E290E07C
:10051000FC01808160E0BEDE882311F481E3A9C084
:1005200086E290E0FC01808161E0B4DE882311F472
:1005300082E39FC086E290E0FC01808162E0AADE57
:10054000882311F483E395C086E290E0FC0180816A
:1005500063E0A0DE882311F481E48BC088E290E0A0
:100560002FEDFC012083000086E290E0FC018081F9
:1005700060E090DE882311F484E37BC086E290E0A3
:10058000FC01808161E086DE882311F485E371C07F
:1005900086E290E0FC01808162E07CDE882311F439
:1005A00086E367C086E290E0FC01808163E072DE52
:1005B000882311F482E45DC088E290E02FEBFC0117
:1005C0002083000086E290E0FC01808160E062DE32
:1005D000882311F487E34DC086E290E0FC0180811E
:1005E00061E058DE882311F488E343C086E290E09E
:1005F000FC01808162E04EDE882311F489E339C07A
:1006000086E290E0FC01808163E044DE882311F4FF
:1006100083E42FC088E290E02FE7FC0120830000F4
:1006200086E290E0FC01808160E034DE882311F4F2
:100630008AE21FC086E290E0FC01808161E02ADE50
:10064000882311F480E315C086E290E0FC018081EC
:1006500062E020DE882311F483E20BC086E290E0A2
:10066000FC01808163E016DE882311F484E401C07C
:1006700080E0DF91CF910895CF93DF9300D0CDB785
:10068000DEB78A838A81898323C08981882F90E09D
:100690002981222F30E021503109285F3E4FF90196
:1006A0002081885F9E4FFC0120838981882F90E004
:1006B0002981222F30E021503109275E3E4FF90178
:1006C0002081875E9E4FFC01208389818150898330
:1006D00089818823D1F60F900F90DF91CF910895F3
:1006E000CF93DF9300D0CDB7DEB78A83198211C0D4
:1006F0008981882F90E0885F9E4FFC01108289815C
:10070000882F90E0875E9E4FFC01108289818F5F69
:10071000898399818A81981758F30F900F90DF9100
:10072000CF910895CF93DF93CDB7DEB72A970FB659
:10073000F894DEBF0FBECDBF9A83898389819A81E9
:100740008130910551F082309105C1F0892B11F56E
:1007500081E090E09A83898320C080916501813097
:1007600019F41A82198209C080916401813029F438
:1007700082E090E09A83898310C00FC08091650168
:10078000813019F41A82198208C081E090E09A83BE
:10079000898303C01A821982000089819A8181307D
:1007A000910509F466C08230910561F0892B09F04A
:1007B00061C081E080932D0184E180932A0181E171
:1007C0008FDF58C080912D0157DFFBD520912A0182
:1007D000222F30E0B90165D5019721F483E280939F
:1007E000080110C0EED520912A01222F30E0B90176
:1007F00058D5019721F48AE28093080103C080E272
:1008000080930801DED520912A01222F30E0B90122
:1008100048D5019721F483E28093190110C0D1D506
:1008200020912A01222F30E0B9013BD5019721F414
:100830008AE28093190103C080E2809319018091BC
:100840001801882321F480912901882361F0809187
:100850002D01803140F0109218011092290180E1A1
:1008600080932D0107C080912D018F5F80932D0112
:1008700001C0000089819A812A960FB6F894DEBFE4
:100880000FBECDBFDF91CF910895CF93DF9300D0FE
:10089000CDB7DEB79A83898389819A8182309105A9
:1008A000E9F0833091052CF4009749F0019761F04D
:1008B00048C08330910551F10497D9F142C081E0DD
:1008C00090E09A83898340C080916301813329F449
:1008D00082E090E09A83898337C036C080916501B9
:1008E000813029F483E090E09A8389830EC080915F
:1008F0006601882329F482E090E09A83898305C009
:1009000083E090E09A8389831FC01EC08091BE015E
:10091000853050F483E090E09A8389838091BE0112
:100920008F5F8093BE0110C084E090E09A8389833A
:100930000BC080916301813319F41A82198204C0BB
:1009400003C01A821982000089819A818230910540
:1009500009F1833091052CF4009751F00197A1F033
:1009600059C08330910591F1049709F448C052C0F1
:100970001092660180E180932B0110927E0110920B
:1009800065011092630146C0A0DB6BE371E081E07A
:1009900016DC40C081E08093640197DB68E071E081
:1009A00081E00DDC69E171E081E109DC80916701A2
:1009B000813029F480912E012ADC8DE2D2DB8091F6
:1009C0002B0125DC80912C01CCDB24C0109264012A
:1009D0007CDB68E071E081E0F2DB69E171E081E1FC
:1009E000EEDB80912B0113DC8091BE0181708823A6
:1009F00019F488E5B6DB0EC08BEDB3DB0BC01092AB
:100A0000BE0163DB6CE471E081E0D9DB81E08093BF
:100A10006501000089819A810F900F90DF91CF913D
:100A20000895CF93DF9300D0CDB7DEB79A83898343
:100A300063DD8093630189819A818130910589F01A
:100A4000823091051CF4892B39F024C08230910545
:100A500091F00397A9F01EC081E090E09A8389830A
:100A60001CC080916301882329F082E090E09A8382
:100A7000898313C012C083E090E09A8389830DC0FC
:100A800080916301882329F481E090E09A8389832F
:100A900004C003C01A821982000089819A818130C2
:100AA0009105A9F1823091051CF4892B91F134C094
:100AB0008230910519F0039771F12EC080912B01BE
:100AC000803139F480916301833419F480E280939A
:100AD0002B0180912B01803239F4809163018234A3
:100AE00019F480E180932B0180916301813349F4F3
:100AF0008091AA01863028F081E0809365011092F0
:100B0000AA018091AA018F5F8093AA0105C000000D
:100B100003C0000001C0000089819A810F900F90EE
:100B2000DF91CF910895CF93DF9300D0CDB7DEB79B
:100B30009A83898389819A81009719F0019731F00E
:100B40000AC081E090E09A83898308C081E090E048
:100B50009A83898303C01A821982000089819A814D
:100B6000009719F0019721F076C01092660173C0CA
:100B700080916701813009F04DC080912E01803154
:100B800018F580912E01882F90E00197885F9E4F85
:100B9000FC0180818A3259F080912E01882F90E0EB
:100BA0000197885F9E4FFC018081833269F48091B8
:100BB0002E01882F90E00197885F9E4F20E2FC0174
:100BC00020831092670126C080912E01803210F59B
:100BD00080912E01882F90E04197875E9E4FFC0107
:100BE00080818A3259F080912E01882F90E04197C0
:100BF000875E9E4FFC018081833261F480912E01DB
:100C0000882F90E04197875E9E4F20E2FC01208371
:100C10001092670180912B01803161F4809117015E
:100C2000803241F080911701882321F081E0809388
:100C3000660110C080912B01803261F480912801FF
:100C4000803241F080912801882321F081E0809357
:100C5000660100C0000089819A810F900F90DF919A
:100C6000CF910895CF93DF9300D0CDB7DEB79A83AD
:100C7000898389819A81009719F0019759F012C0F0
:100C800080916401813029F481E090E09A83898326
:100C90000CC00BC080916401882319F41A82198258
:100CA00004C003C01A821982000089819A810097CA
:100CB00019F0019729F00FC084E180932A010BC03D
:100CC00080912A01833030F080912A0181508093F5
:100CD0002A0100C0000089819A810F900F90DF9156
:100CE000CF910895CF93DF9300D0CDB7DEB79A832D
:100CF000898389819A818130910589F082309105BB
:100D00001CF4892B39F024C08230910591F00397AF
:100D1000A9F01EC081E090E09A8389831CC0809175
:100D20006301843429F482E090E09A83898313C0BC
:100D300012C083E090E09A8389830DC080916301A3
:100D4000843429F081E090E09A83898304C003C051
:100D50001A821982000089819A818130910561F09F
:100D6000823091051CF4892BD9F01DC08230910589
:100D700071F00397B9F017C080912E01882331F0EC
:100D800080912E01815080932E010DC00CC081E016
:100D90008093670180912B01815080932E0103C0C5
:100DA000000001C0000089819A810F900F90DF91AF
:100DB000CF9108950F931F93CF93DF93CDB7DEB7F5
:100DC000C455D1090FB6F894DEBF0FBECDBF84E283
:100DD00090E02FEFFC01208385E290E0FC0110827F
:100DE00087E290E020EFFC01208388E290E02FE092
:100DF000FC0120838AE290E02FEFFC0120838BE24C
:100E000090E0FC01108284EF91E0A0E0B0E08B83E1
:100E10009C83AD83BE8384EF91E0A0E0B0E08F833C
:100E20009887A987BA878AE090E0A0E0B0E08B8736
:100E30009C87AD87BE8784E690E0A0E0B0E08F8716
:100E4000988BA98BBA8B80ED97E0A0E0B0E08B8BFC
:100E50009C8BAD8BBE8B84E690E0A0E0B0E08F8BE6
:100E6000988FA98FBA8F2F81388549855A858B81B4
:100E70009C81AD81BE81BC01CD01F2DADC01CB01E8
:100E80008B8F9C8FAD8FBE8F2B853C854D855E856E
:100E90008B8D9C8DAD8DBE8DBC01CD01E1DADC0169
:100EA000CB018B8F9C8FAD8FBE8F2F853889498961
:100EB0005A898B8D9C8DAD8DBE8DBC01CD01D0DA54
:100EC000DC01CB018B8F9C8FAD8FBE8F2B893C8932
:100ED0004D895E898B8D9C8DAD8DBE8DBC01CD0104
:100EE000BFDADC01CB018B8F9C8FAD8FBE8F2F893A
:100EF000388D498D5A8D8B8D9C8DAD8DBE8DBC01ED
:100F0000CD01AEDADC01CB018B8F9C8FAD8FBE8F14
:100F10008B8D9C8DAD8DBE8D8F8F98A3A9A3BAA309
:100F20008B819C81AD81BE812F8D38A149A15AA1B1
:100F3000BC01CD01C9D1DA01C9018BA39CA3ADA32A
:100F4000BEA38F819885A985BA852F8D38A149A127
:100F50005AA1BC01CD01B8D1DA01C9018FA398A76C
:100F6000A9A7BAA78B859C85AD85BE852F8D38A195
:100F700049A15AA1BC01CD01A7D1DA01C9018BA7B2
:100F80009CA7ADA7BEA78F859889A989BA892F8DFF
:100F900038A149A15AA1BC01CD0196D1DA01C901FC
:100FA0008FA798ABA9ABBAAB8B899C89AD89BE8959
:100FB0002F8D38A149A15AA1BC01CD0185D1DA01FB
:100FC000C9018BAB9CABADABBEAB8F89988DA98DA6
:100FD000BA8D2F8D38A149A15AA1BC01CD0174D180
:100FE000DA01C9018FAB98AFA9AFBAAF86E090E044
:100FF0009CAF8BAF109268018BA19CA1ADA1BEA14B
:101000008093690190936A01A0936B01B0936C0186
:101010008BA19CA1ADA1BEA180936D0190936E01A7
:10102000A0936F01B093700182E993E090937201F5
:1010300080937101109273018FA198A5A9A5BAA5FB
:101040008093740190937501A0937601B09377011A
:101050008FA198A5A9A5BAA580937801909379014D
:10106000A0937A01B0937B0185E494E090937D0195
:1010700080937C0110927E018BA59CA5ADA5BEA599
:1010800080937F0190938001A0938101B0938201AE
:101090008BA59CA5ADA5BEA58093830190938401EB
:1010A000A0938501B093860181E195E0909388013A
:1010B00080938701109289018FA598A9A9A9BAA93F
:1010C00080938A0190938B01A0938C01B0938D0142
:1010D0008FA598A9A9A9BAA980938E0190938F0191
:1010E000A0939001B093910183E995E090939301CF
:1010F00080939201109294018BA99CA9ADA9BEA9DD
:101100008093950190939601A0939701B0939801D5
:101110008BA99CA9ADA9BEA98093990190939A012E
:10112000A0939B01B0939C0182E396E090939E0173
:1011300080939D0110929F018FA998ADA9ADBAAD82
:101140008093A0019093A101A093A201B093A30169
:101150008FA998ADA9ADBAAD8093A4019093A501D4
:10116000A093A601B093A70182E796E09093A9010E
:101170008093A8018F8D98A1A9A1BAA1BC01CD012E
:10118000A2D8CED80E946E001A8219827AC08981B4
:101190009A81880F991F815D9E4FFC01808191810A
:1011A000FC01258136814781508589819A81880F8C
:1011B000991F815D9E4FFC0180819181FC0181819D
:1011C0009281A381B481281739074A075B07A9F5E3
:1011D00089819A81880F991F815D9E4FFC01008152
:1011E000118189819A81880F991F815D9E4FFC0131
:1011F00080819181FC012185328589819A81880FC6
:10120000991F815D9E4FFC0180819181FC0180814D
:10121000082E000C990BF9010995F801808389814A
:101220009A81880F991F815D9E4FFC018081918179
:10123000FC01158216821782108689819A81880F97
:10124000991F815D9E4FFC012081318189819A81A6
:10125000880F991F815D9E4FFC0180819181FC0167
:1012600085819681A781B0850196A11DB11DF901E7
:1012700085839683A783B08789819A8101969A8313
:10128000898329813A818BAD9CAD2817390708F4F1
:101290007ECF000080915E018823E1F310925E0111
:1012A00073CF97FB072E16F4009406D077FD08D075
:1012B0002DD007FC05D03EF4909581959F4F089561
:1012C000709561957F4F0895A1E21A2EAA1BBB1B52
:1012D000FD010DC0AA1FBB1FEE1FFF1FA217B30702
:1012E000E407F50720F0A21BB30BE40BF50B661F18
:1012F000771F881F991F1A9469F7609570958095DC
:1013000090959B01AC01BD01CF010895AA1BBB1BA9
:1013100051E107C0AA1FBB1FA617B70710F0A61BF5
:10132000B70B881F991F5A95A9F780959095BC0116
:10133000CD0108958F929F92AF92BF92CF92DF928C
:10134000EF92FF92CF93DF93EC01688179818A81DC
:101350009B81611571058105910521F464E279EDA8
:101360008BE597E02DE133EF41E050E038D04901C3
:101370005A019B01AC01A7EAB1E44DD06B017C019D
:10138000ACEEB4EFA501940152D0DC01CB018C0D81
:101390009D1DAE1DBF1DB7FF03C00197A109B04839
:1013A00088839983AA83BB839F77DF91CF91FF9036
:1013B000EF90DF90CF90BF90AF909F908F90089567
:1013C000B9CF80E091E0B6CFA0E0B0E0809300011B
:1013D00090930101A0930201B09303010895052E9B
:1013E00097FB16F400940FD057FD05D06DDF07FC76
:1013F00002D046F408C050954095309521953F4F56
:101400004F4F5F4F089590958095709561957F4FF0
:101410008F4F9F4F08950FD0A59F900DB49F900DB3
:10142000A49F800D911D11240895B7FFF4CFF3DF21
:10143000821B930B0895A29FB001B39FC001A39F8D
:10144000700D811D1124911DB29F700D811D1124FD
:08145000911D0895F894FFCFEF
:101458000100000001000000202020202020202082
:101468002020202020202020002020202020202094
:10147800202020202020202020001410DB011068CC
:101488000173017E01890194019F012020204C43B2
:10149800445F5241434552212020200020594F5596
:0E14A8002041524520444541443A282000008E
:00000001FF
