S01D0000787A686F753031365F46696E616C50726F6A6563742E7372656312
S113000045C0000061C000005FC000005DC000008A
S11300105BC0000059C0000057C0000055C000007C
S113002053C0000051C000004FC000004DC000008C
S11300304BC00000B5C1000047C0000045C000002F
S113004043C0000041C000003FC000003DC00000AC
S11300503BC0000039C0000037C0000035C00000BC
S113006033C0000031C000002FC000002DC00000CC
S11300702BC0000029C0000027C0000025C00000DC
S113008023C0000021C000001FC0000011241FBEB7
S1130090CFEFD0E4DEBFCDBF11E0A0E0B1E0E8EAED
S11300A0F4E100E00BBF02C007900D92AE35B1073A
S11300B0D9F721E0AEE5B1E001C01D92AE3AB20736
S11300C0E1F703D60C94520A9BCFCF93DF93CDB7BD
S11300D0DEB781E018D0DF91CF910895CF93DF93FD
S11300E0CDB7DEB784E690E0A6D088E30CD086E0F6
S11300F00AD08FE008D081E006D08AE090E09BD05F
S1130100DF91CF910895CF93DF931F92CDB7DEB7E0
S113011089838BE290E02BE230E0F90120812F7B90
S1130120FC01208385E290E02981FC0120838BE29D
S113013090E02BE230E0F90120812068FC0120836B
S113014000008BE290E02BE230E0F90120812F7770
S1130150FC01208382E090E06ED00F90DF91CF917C
S11301600895CF93DF931F92CDB7DEB789838BE2D7
S113017090E02BE230E0F90120812064FC0120832F
S113018085E290E02981FC0120838BE290E02BE260
S113019030E0F90120812068FC01208300008BE21B
S11301A090E02BE230E0F90120812F77FC012083DD
S11301B081E090E040D00F90DF91CF910895CF93EC
S11301C0DF9300D000D0CDB7DEB78A837C836B8306
S11301D08A8189830FC0898191E0980F998317D010
S11301E08B819C819C012F5F3F4F3C832B83FC01BF
S11301F08081B7DF8B819C81FC018081882359F742
S11302000F900F900F900F90DF91CF910895CF939F
S1130210DF931F92CDB7DEB789838981813120F4C2
S11302208981815870DF03C0898181556CDF0F900B
S1130230DF91CF910895CF93DF9300D000D000D009
S1130240CDB7DEB79E838D831A82198213C01C82B8
S11302501B8206C000008B819C8101969C838B834A
S11302608B819C8187309340ACF389819A8101967C
S11302709A83898329813A818D819E812817390740
S113028034F326960FB6F894DEBF0FBECDBFDF91D0
S1130290CF910895CF93DF9300D0CDB7DEB7898394
S11302A06A838A81282F30E081E090E002C0880FC1
S11302B0991F2A95E2F7982F898189230F900F902F
S11302C0DF91CF910895CF93DF9300D000D0CDB7C5
S11302D0DEB769837A838B839C8389819A81AB811E
S11302E0BC8180930A0190930B01A0930C01B093FD
S11302F00D0180910A0190910B01A0910C01B09124
S11303000D0180935F0190936001A0936101B0930C
S113031062010F900F900F900F90DF91CF9108958D
S1130320CF93DF93CDB7DEB781E890E02BE0FC01FB
S1130330208388E890E02DE730E0FC0131832083BE
S11303408FE690E022E0FC01208384E890E0FC0149
S11303501182108280910A0190910B01A0910C01ED
S1130360B0910D0180935F0190936001A0936101AE
S1130370B09362018FE590E02FE530E0F901208130
S11303802068FC012083DF91CF910895CF93DF9300
S1130390CDB7DEB781E080935E01DF91CF91089500
S11303A01F920F9200905F000F92112400905B0047
S11303B00F922F933F934F935F936F937F938F93FA
S11303C09F93AF93BF93EF93FF93CF93DF93CDB7F7
S11303D0DEB780915F0190916001A0916101B091BD
S11303E062010197A109B10980935F0190936001B3
S11303F0A0936101B093620180915F0190916001CB
S1130400A0916101B0916201892B8A2B8B2B89F415
S1130410BDDF80910A0190910B01A0910C01B09174
S11304200D0180935F0190936001A0936101B093EB
S11304306201DF91CF91FF91EF91BF91AF919F91B5
S11304408F917F916F915F914F913F912F910F9079
S113045000925B000F9000925F000F901F90189520
S1130460CF93DF93CDB7DEB760970FB6F894DEBFB6
S11304700FBECDBF6D837E838F83988729873A878C
S11304804B875C878D819E81AF81B88529853A85AC
S11304904B855C85BC01CD0112D6DC01CB0189837F
S11304A09A83AB83BC8389819A81AB81BC81892B7C
S11304B08A2B8B2B29F489859A85AB85BC8511C041
S11304C089859A85AB85BC858D839E83AF83B887E8
S11304D089819A81AB81BC8189879A87AB87BC87E4
S11304E0D1CFBC01CD0160960FB6F894DEBF0FBE2C
S11304F0CDBFDF91CF910895CF93DF93CDB7DEB712
S113050088E290E02FEEFC012083000086E290E078
S1130510FC01808160E0BEDE882311F481E3A9C080
S113052086E290E0FC01808161E0B4DE882311F46E
S113053082E39FC086E290E0FC01808162E0AADE53
S1130540882311F483E395C086E290E0FC01808166
S113055063E0A0DE882311F481E48BC088E290E09C
S11305602FEDFC012083000086E290E0FC018081F5
S113057060E090DE882311F484E37BC086E290E09F
S1130580FC01808161E086DE882311F485E371C07B
S113059086E290E0FC01808162E07CDE882311F435
S11305A086E367C086E290E0FC01808163E072DE4E
S11305B0882311F482E45DC088E290E02FEBFC0113
S11305C02083000086E290E0FC01808160E062DE2E
S11305D0882311F487E34DC086E290E0FC0180811A
S11305E061E058DE882311F488E343C086E290E09A
S11305F0FC01808162E04EDE882311F489E339C076
S113060086E290E0FC01808163E044DE882311F4FB
S113061083E42FC088E290E02FE7FC0120830000F0
S113062086E290E0FC01808160E034DE882311F4EE
S11306308AE21FC086E290E0FC01808161E02ADE4C
S1130640882311F480E315C086E290E0FC018081E8
S113065062E020DE882311F483E20BC086E290E09E
S1130660FC01808163E016DE882311F484E401C078
S113067080E0DF91CF910895CF93DF9300D01F9254
S1130680CDB7DEB78B8386E090E04FD59A8389831C
S11306908B81882F90E049D59C0189819A81FC0146
S11306A03183208389819A81FC01128289819A8114
S11306B0FC01138289819A81FC01148289819A81C7
S11306C02B81FC01258389819A810F900F900F90D3
S11306D0DF91CF910895CF93DF9300D0CDB7DEB7EC
S11306E08A838A81898323C08981882F90E0298124
S11306F0222F30E021503109225F3E4FF901208141
S1130700825F9E4FFC0120838981882F90E029819C
S1130710222F30E021503109215E3E4FF901208122
S1130720815E9E4FFC012083898181508983898168
S11307308823D1F60F900F90DF91CF910895CF9336
S1130740DF9300D0CDB7DEB78A83198211C08981C7
S1130750882F90E0825F9E4FFC0110828981882F50
S113076090E0815E9E4FFC01108289818F5F8983B6
S113077099818A81981758F30F900F90DF91CF9148
S11307800895CF93DF93CDB7DEB72A970FB6F894C9
S1130790DEBF0FBECDBF9A83898389819A81813060
S11307A0910551F082309105C1F0892B11F581E05A
S11307B090E09A83898320C080916501813019F487
S11307C01A82198209C080916401813029F482E07F
S11307D090E09A83898310C00FC0809165018130B5
S11307E019F41A82198208C081E090E09A838983FF
S11307F003C01A821982000089819A81813091058F
S113080009F466C08230910561F0892B09F061C05A
S113081081E08093330182E08093300181E18FDFB6
S113082058C08091330157DFF4D520913001222F35
S113083030E0B90131D4019721F483E280930E01B1
S113084010C0E7D520913001222F30E0B90124D423
S1130850019721F48AE280930E0103C080E2809321
S11308600E01D7D520913001222F30E0B90114D4E4
S1130870019721F483E280931F0110C0CAD520910F
S11308803001222F30E0B90107D4019721F48AE224
S113089080931F0103C080E280931F0180911E0199
S11308A0882321F480912F01882361F08091330102
S11308B0803140F010921E0110922F0180E180934C
S11308C0330107C0809133018F5F8093330101C0EE
S11308D0000089819A812A960FB6F894DEBF0FBE74
S11308E0CDBFDF91CF910895CF93DF9300D0CDB7E3
S11308F0DEB79A83898389819A8182309105E9F0F0
S1130900833091052CF4009749F0019761F048C0B9
S11309108330910551F10497D9F142C081E090E010
S11309209A83898340C080916301813329F482E0F2
S113093090E09A83898337C036C080916501813005
S113094029F483E090E09A8389830EC08091660144
S1130950882329F482E090E09A83898305C083E0A8
S113096090E09A8389831FC01EC08091A4018530C2
S113097050F483E090E09A8389838091A4018F5F8F
S11309808093A40110C084E090E09A8389830BC013
S113099080916301813319F41A82198204C003C05F
S11309A01A821982000089819A818230910509F1A5
S11309B0833091052CF4009751F00197A1F050C0B9
S11309C08330910549F1049709F43FC049C010925E
S11309D0660180E18093310110927D0110926501DE
S11309E0109263013DC071DB6CE371E081E0E7DBF1
S11309F037C081E08093640168DB6EE071E081E0E0
S1130A00DEDB6FE171E081E1DADB80913101FFDB54
S1130A1080913201A6DB24C01092640156DB6EE0A3
S1130A2071E081E0CCDB6FE171E081E1C8DB8091B2
S1130A303101EDDB8091A4018170882319F488E5EC
S1130A4090DB0EC08BED8DDB0BC01092A4013DDB5F
S1130A506DE471E081E0B3DB81E080936501000027
S1130A6089819A810F900F90DF91CF910895CF9350
S1130A70DF9300D0CDB7DEB79A8389833DDD8093C1
S1130A80630189819A818130910589F082309105D1
S1130A901CF4892B39F024C08230910591F003971E
S1130AA0A9F01EC081E090E09A8389831CC08091E4
S1130AB06301882329F082E090E09A83898313C03C
S1130AC012C083E090E09A8389830DC08091630112
S1130AD0882329F481E090E09A83898304C003C0C9
S1130AE01A821982000089819A8181309105A9F1C5
S1130AF0823091051CF4892B91F134C08230910528
S1130B0019F0039771F12EC080913101803139F4CD
S1130B1080916301833419F480E2809331018091E0
S1130B203101803239F480916301823419F480E117
S1130B308093310180916301813349F48091930161
S1130B40863028F081E080936501109293018091B2
S1130B5093018F5F8093930105C0000003C00000E0
S1130B6001C0000089819A810F900F90DF91CF918D
S1130B700895CF93DF9300D0CDB7DEB71A821982E0
S1130B804CC080913101803101F589819A818B5665
S1130B909E4FFC0180818D32D9F589819A81825FD3
S1130BA09E4FFC0180818A3241F089819A81825F63
S1130BB09E4FFC018081833259F589819A81825F3D
S1130BC09E4F20E2FC01208323C0809131018032BA
S1130BD0F9F489819A818B569E4FFC0180818D3274
S1130BE0B9F489819A81815E9E4FFC0180818A32A9
S1130BF041F089819A81815E9E4FFC01808183321C
S1130C0039F489819A81815E9E4F20E2FC01208320
S1130C1089819A8101969A83898389819A810F9720
S1130C2008F4AFCF0F900F90DF91CF910895CF9339
S1130C30DF9300D0CDB7DEB79A83898389819A8107
S1130C40009719F0019731F00AC081E090E09A838F
S1130C50898308C081E090E09A83898303C01A8263
S1130C601982000089819A81009719F0019721F077
S1130C7025C01092660122C07CDF80913101803151
S1130C8061F480911D01803241F080911D0188231F
S1130C9021F081E08093660110C08091310180329F
S1130CA061F480912E01803241F080912E018823DD
S1130CB021F081E08093660100C0000089819A815F
S1130CC00F900F90DF91CF9108950F931F93CF93BF
S1130CD0DF93CDB7DEB7EC970FB6F894DEBF0FBE47
S1130CE0CDBF84E290E02FEFFC01208385E290E009
S1130CF0FC01108287E290E020EFFC01208388E26F
S1130D0090E02FE0FC0120838AE290E02FEFFC01C9
S1130D1020838BE290E0FC01108281E0ADDC9093B3
S1130D20A7018093A60184EF91E0A0E0B0E08B835B
S1130D309C83AD83BE8384EF91E0A0E0B0E08F8319
S1130D409887A987BA878AE090E0A0E0B0E08B8713
S1130D509C87AD87BE8784E690E0A0E0B0E08F87F3
S1130D60988BA98BBA8B2F81388549855A858B81BD
S1130D709C81AD81BE81BC01CD0172DBDC01CB0164
S1130D808B8B9C8BAD8BBE8B2B853C854D855E857B
S1130D908B899C89AD89BE89BC01CD0161DBDC01F5
S1130DA0CB018B8B9C8BAD8BBE8B2F85388949896E
S1130DB05A898B899C89AD89BE89BC01CD0150DBE0
S1130DC0DC01CB018B8B9C8BAD8BBE8B8B899C897F
S1130DD0AD89BE898F8B988FA98FBA8F8B819C81A7
S1130DE0AD81BE812F89388D498D5A8DBC01CD01CD
S1130DF066D1DA01C9018B8F9C8FAD8FBE8F8F8135
S1130E009885A985BA852F89388D498D5A8DBC015D
S1130E10CD0155D1DA01C9018F8F98A3A9A3BAA333
S1130E208B859C85AD85BE852F89388D498D5A8DDE
S1130E30BC01CD0144D1DA01C9018BA39CA3ADA3AC
S1130E40BEA38F859889A989BA892F89388D498D40
S1130E505A8DBC01CD0133D1DA01C9018FA398A702
S1130E60A9A7BAA784E090E09CA78BA7109267017A
S1130E708B8D9C8DAD8DBE8D80936801909369019F
S1130E80A0936A01B0936B018B8D9C8DAD8DBE8D4B
S1130E9080936C0190936D01A0936E01B0936F01E8
S1130EA081EC93E090937101809370011092720130
S1130EB08F8D98A1A9A1BAA1809373019093740115
S1130EC0A0937501B09376018F8D98A1A9A1BAA1C1
S1130ED08093770190937801A0937901B0937A017C
S1130EE084E794E090937C0180937B0110927D01D0
S1130EF08BA19CA1ADA1BEA180937E0190937F01A3
S1130F00A0938001B09381018BA19CA1ADA1BEA14E
S1130F108093820190938301A0938401B09385010F
S1130F2087E395E09093870180938601109288016E
S1130F308FA198A5A9A5BAA58093890190938A0148
S1130F40A0938B01B0938C018FA198A5A9A5BAA5F4
S1130F5080938D0190938E01A0938F01B0939001A3
S1130F6087E196E090939201809391018F89988D07
S1130F70A98DBA8DBC01CD01A6D9D2D9AFD81A8218
S1130F8019827AC089819A81880F991F8C5C9E4F3F
S1130F90FC0180819181FC01258136814781508546
S1130FA089819A81880F991F8C5C9E4FFC018081F6
S1130FB09181FC0181819281A381B4812817390731
S1130FC04A075B07A9F589819A81880F991F8C5C70
S1130FD09E4FFC010081118189819A81880F991F9C
S1130FE08C5C9E4FFC0180819181FC0121853285BE
S1130FF089819A81880F991F8C5C9E4FFC018081A6
S11310009181FC018081082E000C990BF90109954E
S1131010F801808389819A81880F991F8C5C9E4F87
S1131020FC0180819181FC01158216821782108651
S113103089819A81880F991F8C5C9E4FFC012081C5
S1131040318189819A81880F991F8C5C9E4FFC01A4
S113105080819181FC0185819681A781B08501966B
S1131060A11DB11DF90185839683A783B08789816A
S11310709A8101969A83898329813A818BA59CA5BB
S11310802817390708F47ECF000080915E01882379
S1131090E1F310925E0173CF97FB072E16F40094D0
S11310A006D077FD08D02DD007FC05D03EF49095EE
S11310B081959F4F0895709561957F4F0895A1E2A2
S11310C01A2EAA1BBB1BFD010DC0AA1FBB1FEE1FBE
S11310D0FF1FA217B307E407F50720F0A21BB30B09
S11310E0E40BF50B661F771F881F991F1A9469F785
S11310F060957095809590959B01AC01BD01CF01E1
S11311000895AA1BBB1B51E107C0AA1FBB1FA6174A
S1131110B70710F0A61BB70B881F991F5A95A9F79C
S113112080959095BC01CD010895CF93DF938230D3
S1131130910510F482E090E0E091AC01F091AD01F2
S113114020E030E0C0E0D0E0309711F140815181DF
S113115048175907C0F04817590761F482819381F1
S1131160209719F09B838A832BC09093AD018093C1
S1131170AC0126C02115310519F04217530718F4A4
S11311809A01BE01DF01EF010280F381E02DDCCF83
S11311902115310509F1281B390B2430310590F450
S11311A012968D919C9113976115710521F0FB01A5
S11311B09383828304C09093AD018093AC01FD01BD
S11311C0329644C0FD01E20FF31F819391932250A4
S11311D031092D933C933AC02091AA013091AB017F
S11311E0232B41F420910201309103013093AB0190
S11311F02093AA01209100013091010121153105AC
S113120041F42DB73EB74091040150910501241BD0
S1131210350BE091AA01F091AB01E217F307A0F4BA
S11312202E1B3F0B2817390778F0AC014E5F5F4F38
S11312302417350748F04E0F5F1F5093AB014093BE
S1131240AA018193919302C0E0E0F0E0CF01DF9125
S1131250CF9108950F931F93CF93DF93009709F4D1
S11312608CC0FC013297138212820091AC01109160
S1131270AD010115110581F420813181820F931F85
S11312802091AA013091AB012817390779F5F09321
S1131290AB01E093AA0171C0D80140E050E0AE1761
S11312A0BF0750F412962D913C911397AD0121156F
S11312B0310509F1D901F3CF9D01DA01338322838A
S11312C060817181860F971F8217930769F4EC017F
S11312D028813981260F371F2E5F3F4F31832083AA
S11312E08A819B8193838283452B29F4F093AD01FA
S11312F0E093AC0142C01396FC93EE931297ED0178
S1131300499159919E01240F351FE217F30771F497
S113131080819181840F951F029611969C938E93E0
S11313208281938113969C938E931297E0E0F0E070
S1131330D80112968D919C911397009719F0F8019A
S11313408C01F6CF8D919C9198012E5F3F4F820FB7
S1131350931F2091AA013091AB012817390769F432
S1131360309729F41092AD011092AC0102C013829F
S113137012821093AB010093AA01DF91CF911F91C8
S11313800F9108958F929F92AF92BF92CF92DF9266
S1131390EF92FF92CF93DF93EC01688179818A8188
S11313A09B81611571058105910521F464E279ED54
S11313B08BE597E02DE133EF41E050E038D049016F
S11313C05A019B01AC01A7EAB1E44DD06B017C0149
S11313D0ACEEB4EFA501940152D0DC01CB018C0D2D
S11313E09D1DAE1DBF1DB7FF03C00197A109B048E5
S11313F088839983AA83BB839F77DF91CF91FF90E2
S1131400EF90DF90CF90BF90AF909F908F90089512
S1131410B9CF86E091E0B6CFA0E0B0E080930601BA
S113142090930701A0930801B09309010895052E34
S113143097FB16F400940FD057FD05D040DE07FC4F
S113144002D046F408C050954095309521953F4F01
S11314504F4F5F4F089590958095709561957F4F9C
S11314608F4F9F4F08950FD0A59F900DB49F900D5F
S1131470A49F800D911D11240895B7FFF4CFF3DFCD
S1131480821B930B0895A29FB001B39FC001A39F39
S1131490700D811D1124911DB29F700D811D1124A9
S10B14A0911D0895F894FFCF9B
S11314A80000AE012000010000000100000020003F
S11314B80000000000000000000000000000002000
S11314C80000000000000000000000000000000010
S11314D81410DB01670172017D0188012020204C72
S11314E843445F5241434552212020200020594F54
S11114F8552041524520444541443A282000E5
S9030000FC
