:100000000C942A000C9434000C9434000C943400AA
:100010000C9434000C9434000C9434000C94340090
:100020000C9434000C9434000C9434000C94340080
:100030000C9434000C9434000C9434000C94340070
:100040000C9434000C9434000C9434000C94340060
:100050000C94340011241FBECFE5D8E0DEBFCDBF25
:100060000E9436000C945C000C94000086E087BB74
:1000700018BA11BA8FEF82BB80B396B3292F2170C3
:1000800030E090E0880F991F822B932B86349105E6
:1000900018F066B3626002C066B36D7FAC01465073
:1000A00051094034510518F466B3646003C00697E3
:0C00B00008F4617068BBE0CFF894FFCF4B
:00000001FF
